{
  "contractName": "Gold",
  "abi": [
    {
      "inputs": [],
      "stateMutability": "nonpayable",
      "type": "constructor"
    },
    {
      "anonymous": false,
      "inputs": [
        {
          "indexed": true,
          "internalType": "address",
          "name": "owner",
          "type": "address"
        },
        {
          "indexed": true,
          "internalType": "address",
          "name": "spender",
          "type": "address"
        },
        {
          "indexed": false,
          "internalType": "uint256",
          "name": "value",
          "type": "uint256"
        }
      ],
      "name": "Approval",
      "type": "event"
    },
    {
      "anonymous": false,
      "inputs": [
        {
          "indexed": true,
          "internalType": "address",
          "name": "previousOwner",
          "type": "address"
        },
        {
          "indexed": true,
          "internalType": "address",
          "name": "newOwner",
          "type": "address"
        }
      ],
      "name": "OwnershipTransferred",
      "type": "event"
    },
    {
      "anonymous": false,
      "inputs": [
        {
          "indexed": true,
          "internalType": "address",
          "name": "from",
          "type": "address"
        },
        {
          "indexed": true,
          "internalType": "address",
          "name": "to",
          "type": "address"
        },
        {
          "indexed": false,
          "internalType": "uint256",
          "name": "value",
          "type": "uint256"
        }
      ],
      "name": "Transfer",
      "type": "event"
    },
    {
      "inputs": [
        {
          "internalType": "address",
          "name": "owner",
          "type": "address"
        },
        {
          "internalType": "address",
          "name": "spender",
          "type": "address"
        }
      ],
      "name": "allowance",
      "outputs": [
        {
          "internalType": "uint256",
          "name": "",
          "type": "uint256"
        }
      ],
      "stateMutability": "view",
      "type": "function"
    },
    {
      "inputs": [
        {
          "internalType": "address",
          "name": "spender",
          "type": "address"
        },
        {
          "internalType": "uint256",
          "name": "amount",
          "type": "uint256"
        }
      ],
      "name": "approve",
      "outputs": [
        {
          "internalType": "bool",
          "name": "",
          "type": "bool"
        }
      ],
      "stateMutability": "nonpayable",
      "type": "function"
    },
    {
      "inputs": [
        {
          "internalType": "address",
          "name": "account",
          "type": "address"
        }
      ],
      "name": "balanceOf",
      "outputs": [
        {
          "internalType": "uint256",
          "name": "",
          "type": "uint256"
        }
      ],
      "stateMutability": "view",
      "type": "function"
    },
    {
      "inputs": [
        {
          "internalType": "uint256",
          "name": "amount",
          "type": "uint256"
        }
      ],
      "name": "burn",
      "outputs": [],
      "stateMutability": "nonpayable",
      "type": "function"
    },
    {
      "inputs": [
        {
          "internalType": "address",
          "name": "account",
          "type": "address"
        },
        {
          "internalType": "uint256",
          "name": "amount",
          "type": "uint256"
        }
      ],
      "name": "burnFrom",
      "outputs": [],
      "stateMutability": "nonpayable",
      "type": "function"
    },
    {
      "inputs": [],
      "name": "decimals",
      "outputs": [
        {
          "internalType": "uint8",
          "name": "",
          "type": "uint8"
        }
      ],
      "stateMutability": "view",
      "type": "function"
    },
    {
      "inputs": [
        {
          "internalType": "address",
          "name": "spender",
          "type": "address"
        },
        {
          "internalType": "uint256",
          "name": "subtractedValue",
          "type": "uint256"
        }
      ],
      "name": "decreaseAllowance",
      "outputs": [
        {
          "internalType": "bool",
          "name": "",
          "type": "bool"
        }
      ],
      "stateMutability": "nonpayable",
      "type": "function"
    },
    {
      "inputs": [
        {
          "internalType": "address",
          "name": "spender",
          "type": "address"
        },
        {
          "internalType": "uint256",
          "name": "addedValue",
          "type": "uint256"
        }
      ],
      "name": "increaseAllowance",
      "outputs": [
        {
          "internalType": "bool",
          "name": "",
          "type": "bool"
        }
      ],
      "stateMutability": "nonpayable",
      "type": "function"
    },
    {
      "inputs": [],
      "name": "name",
      "outputs": [
        {
          "internalType": "string",
          "name": "",
          "type": "string"
        }
      ],
      "stateMutability": "view",
      "type": "function"
    },
    {
      "inputs": [],
      "name": "owner",
      "outputs": [
        {
          "internalType": "address",
          "name": "",
          "type": "address"
        }
      ],
      "stateMutability": "view",
      "type": "function"
    },
    {
      "inputs": [],
      "name": "renounceOwnership",
      "outputs": [],
      "stateMutability": "nonpayable",
      "type": "function"
    },
    {
      "inputs": [],
      "name": "symbol",
      "outputs": [
        {
          "internalType": "string",
          "name": "",
          "type": "string"
        }
      ],
      "stateMutability": "view",
      "type": "function"
    },
    {
      "inputs": [],
      "name": "totalSupply",
      "outputs": [
        {
          "internalType": "uint256",
          "name": "",
          "type": "uint256"
        }
      ],
      "stateMutability": "view",
      "type": "function"
    },
    {
      "inputs": [
        {
          "internalType": "address",
          "name": "recipient",
          "type": "address"
        },
        {
          "internalType": "uint256",
          "name": "amount",
          "type": "uint256"
        }
      ],
      "name": "transfer",
      "outputs": [
        {
          "internalType": "bool",
          "name": "",
          "type": "bool"
        }
      ],
      "stateMutability": "nonpayable",
      "type": "function"
    },
    {
      "inputs": [
        {
          "internalType": "address",
          "name": "sender",
          "type": "address"
        },
        {
          "internalType": "address",
          "name": "recipient",
          "type": "address"
        },
        {
          "internalType": "uint256",
          "name": "amount",
          "type": "uint256"
        }
      ],
      "name": "transferFrom",
      "outputs": [
        {
          "internalType": "bool",
          "name": "",
          "type": "bool"
        }
      ],
      "stateMutability": "nonpayable",
      "type": "function"
    },
    {
      "inputs": [
        {
          "internalType": "address",
          "name": "newOwner",
          "type": "address"
        }
      ],
      "name": "transferOwnership",
      "outputs": [],
      "stateMutability": "nonpayable",
      "type": "function"
    },
    {
      "inputs": [
        {
          "internalType": "uint256",
          "name": "amount",
          "type": "uint256"
        }
      ],
      "name": "mint",
      "outputs": [
        {
          "internalType": "bool",
          "name": "",
          "type": "bool"
        }
      ],
      "stateMutability": "nonpayable",
      "type": "function"
    },
    {
      "inputs": [
        {
          "internalType": "address",
          "name": "to",
          "type": "address"
        },
        {
          "internalType": "uint256",
          "name": "amount",
          "type": "uint256"
        }
      ],
      "name": "mintTo",
      "outputs": [
        {
          "internalType": "bool",
          "name": "",
          "type": "bool"
        }
      ],
      "stateMutability": "nonpayable",
      "type": "function"
    },
    {
      "inputs": [
        {
          "internalType": "address",
          "name": "from",
          "type": "address"
        },
        {
          "internalType": "uint256",
          "name": "amount",
          "type": "uint256"
        }
      ],
      "name": "burnFromAcc",
      "outputs": [
        {
          "internalType": "bool",
          "name": "",
          "type": "bool"
        }
      ],
      "stateMutability": "nonpayable",
      "type": "function"
    },
    {
      "inputs": [],
      "name": "master",
      "outputs": [
        {
          "internalType": "address",
          "name": "",
          "type": "address"
        }
      ],
      "stateMutability": "view",
      "type": "function"
    },
    {
      "inputs": [
        {
          "internalType": "address",
          "name": "_newmaster",
          "type": "address"
        }
      ],
      "name": "setMasterContract",
      "outputs": [
        {
          "internalType": "bool",
          "name": "",
          "type": "bool"
        }
      ],
      "stateMutability": "nonpayable",
      "type": "function"
    }
  ],
  "bytecode": "0x60806040523480156200001157600080fd5b506040518060400160405280600481526020017f476f6c64000000000000000000000000000000000000000000000000000000008152506040518060400160405280600281526020017f417500000000000000000000000000000000000000000000000000000000000081525081600390805190602001906200009692919062000372565b508060049080519060200190620000af92919062000372565b505050620000d2620000c66200011860201b60201c565b6200012060201b60201c565b6200011233620000e7620001e660201b60201c565b600a620000f5919062000562565b633b9aca006200010691906200069f565b620001ef60201b60201c565b620007e1565b600033905090565b6000600560009054906101000a900473ffffffffffffffffffffffffffffffffffffffff16905081600560006101000a81548173ffffffffffffffffffffffffffffffffffffffff021916908373ffffffffffffffffffffffffffffffffffffffff1602179055508173ffffffffffffffffffffffffffffffffffffffff168173ffffffffffffffffffffffffffffffffffffffff167f8be0079c531659141344cd1fd0a4f28419497f9722a3daafe3b4186f6b6457e060405160405180910390a35050565b60006012905090565b600073ffffffffffffffffffffffffffffffffffffffff168273ffffffffffffffffffffffffffffffffffffffff16141562000262576040517f08c379a000000000000000000000000000000000000000000000000000000000815260040162000259906200045a565b60405180910390fd5b62000276600083836200036860201b60201c565b80600260008282546200028a9190620004aa565b92505081905550806000808473ffffffffffffffffffffffffffffffffffffffff1673ffffffffffffffffffffffffffffffffffffffff1681526020019081526020016000206000828254620002e19190620004aa565b925050819055508173ffffffffffffffffffffffffffffffffffffffff16600073ffffffffffffffffffffffffffffffffffffffff167fddf252ad1be2c89b69c2b068fc378daa952ba7f163c4a11628f55a4df523b3ef836040516200034891906200047c565b60405180910390a362000364600083836200036d60201b60201c565b5050565b505050565b505050565b828054620003809062000717565b90600052602060002090601f016020900481019282620003a45760008555620003f0565b82601f10620003bf57805160ff1916838001178555620003f0565b82800160010185558215620003f0579182015b82811115620003ef578251825591602001919060010190620003d2565b5b509050620003ff919062000403565b5090565b5b808211156200041e57600081600090555060010162000404565b5090565b600062000431601f8362000499565b91506200043e82620007b8565b602082019050919050565b620004548162000700565b82525050565b60006020820190508181036000830152620004758162000422565b9050919050565b600060208201905062000493600083018462000449565b92915050565b600082825260208201905092915050565b6000620004b78262000700565b9150620004c48362000700565b9250827fffffffffffffffffffffffffffffffffffffffffffffffffffffffffffffffff03821115620004fc57620004fb6200074d565b5b828201905092915050565b6000808291508390505b600185111562000559578086048111156200053157620005306200074d565b5b6001851615620005415780820291505b80810290506200055185620007ab565b945062000511565b94509492505050565b60006200056f8262000700565b91506200057c836200070a565b9250620005ab7fffffffffffffffffffffffffffffffffffffffffffffffffffffffffffffffff8484620005b3565b905092915050565b600082620005c5576001905062000698565b81620005d5576000905062000698565b8160018114620005ee5760028114620005f9576200062f565b600191505062000698565b60ff8411156200060e576200060d6200074d565b5b8360020a9150848211156200062857620006276200074d565b5b5062000698565b5060208310610133831016604e8410600b8410161715620006695782820a9050838111156200066357620006626200074d565b5b62000698565b62000678848484600162000507565b925090508184048111156200069257620006916200074d565b5b81810290505b9392505050565b6000620006ac8262000700565b9150620006b98362000700565b9250817fffffffffffffffffffffffffffffffffffffffffffffffffffffffffffffffff0483118215151615620006f557620006f46200074d565b5b828202905092915050565b6000819050919050565b600060ff82169050919050565b600060028204905060018216806200073057607f821691505b602082108114156200074757620007466200077c565b5b50919050565b7f4e487b7100000000000000000000000000000000000000000000000000000000600052601160045260246000fd5b7f4e487b7100000000000000000000000000000000000000000000000000000000600052602260045260246000fd5b60008160011c9050919050565b7f45524332303a206d696e7420746f20746865207a65726f206164647265737300600082015250565b6124ca80620007f16000396000f3fe608060405234801561001057600080fd5b50600436106101375760003560e01c806370a08231116100b8578063a0712d681161007c578063a0712d6814610364578063a457c2d714610394578063a9059cbb146103c4578063dd62ed3e146103f4578063ee97f7f314610424578063f2fde38b1461044257610137565b806370a08231146102d2578063715018a61461030257806379cc67901461030c5780638da5cb5b1461032857806395d89b411461034657610137565b80632a3a236f116100ff5780632a3a236f14610208578063313ce56714610238578063395093511461025657806342966c6814610286578063449a52f8146102a257610137565b806306fdde031461013c578063095ea7b31461015a57806318160ddd1461018a578063196ff603146101a857806323b872dd146101d8575b600080fd5b61014461045e565b6040516101519190611a9c565b60405180910390f35b610174600480360381019061016f919061179a565b6104f0565b6040516101819190611a81565b60405180910390f35b61019261050e565b60405161019f9190611c7e565b60405180910390f35b6101c260048036038101906101bd919061179a565b610518565b6040516101cf9190611a81565b60405180910390f35b6101f260048036038101906101ed9190611747565b6105be565b6040516101ff9190611a81565b60405180910390f35b610222600480360381019061021d91906116da565b6106b6565b60405161022f9190611a81565b60405180910390f35b61024061077e565b60405161024d9190611c99565b60405180910390f35b610270600480360381019061026b919061179a565b610787565b60405161027d9190611a81565b60405180910390f35b6102a0600480360381019061029b91906117da565b610833565b005b6102bc60048036038101906102b7919061179a565b610847565b6040516102c99190611a81565b60405180910390f35b6102ec60048036038101906102e791906116da565b6108ed565b6040516102f99190611c7e565b60405180910390f35b61030a610935565b005b6103266004803603810190610321919061179a565b6109bd565b005b610330610a38565b60405161033d9190611a66565b60405180910390f35b61034e610a62565b60405161035b9190611a9c565b60405180910390f35b61037e600480360381019061037991906117da565b610af4565b60405161038b9190611a81565b60405180910390f35b6103ae60048036038101906103a9919061179a565b610ba3565b6040516103bb9190611a81565b60405180910390f35b6103de60048036038101906103d9919061179a565b610c8e565b6040516103eb9190611a81565b60405180910390f35b61040e60048036038101906104099190611707565b610cac565b60405161041b9190611c7e565b60405180910390f35b61042c610d33565b6040516104399190611a66565b60405180910390f35b61045c600480360381019061045791906116da565b610d5d565b005b60606003805461046d90611fad565b80601f016020809104026020016040519081016040528092919081815260200182805461049990611fad565b80156104e65780601f106104bb576101008083540402835291602001916104e6565b820191906000526020600020905b8154815290600101906020018083116104c957829003601f168201915b5050505050905090565b60006105046104fd610e55565b8484610e5d565b6001905092915050565b6000600254905090565b60003373ffffffffffffffffffffffffffffffffffffffff16600660009054906101000a900473ffffffffffffffffffffffffffffffffffffffff1673ffffffffffffffffffffffffffffffffffffffff16146105aa576040517f08c379a00000000000000000000000000000000000000000000000000000000081526004016105a190611c1e565b60405180910390fd5b6105b48383611028565b6001905092915050565b60006105cb8484846111ff565b6000600160008673ffffffffffffffffffffffffffffffffffffffff1673ffffffffffffffffffffffffffffffffffffffff1681526020019081526020016000206000610616610e55565b73ffffffffffffffffffffffffffffffffffffffff1673ffffffffffffffffffffffffffffffffffffffff16815260200190815260200160002054905082811015610696576040517f08c379a000000000000000000000000000000000000000000000000000000000815260040161068d90611b5e565b60405180910390fd5b6106aa856106a2610e55565b858403610e5d565b60019150509392505050565b60006106c0610e55565b73ffffffffffffffffffffffffffffffffffffffff166106de610a38565b73ffffffffffffffffffffffffffffffffffffffff1614610734576040517f08c379a000000000000000000000000000000000000000000000000000000000815260040161072b90611b7e565b60405180910390fd5b81600660006101000a81548173ffffffffffffffffffffffffffffffffffffffff021916908373ffffffffffffffffffffffffffffffffffffffff16021790555060019050919050565b60006012905090565b6000610829610794610e55565b8484600160006107a2610e55565b73ffffffffffffffffffffffffffffffffffffffff1673ffffffffffffffffffffffffffffffffffffffff16815260200190815260200160002060008873ffffffffffffffffffffffffffffffffffffffff1673ffffffffffffffffffffffffffffffffffffffff168152602001908152602001600020546108249190611cd0565b610e5d565b6001905092915050565b61084461083e610e55565b82611028565b50565b60003373ffffffffffffffffffffffffffffffffffffffff16600660009054906101000a900473ffffffffffffffffffffffffffffffffffffffff1673ffffffffffffffffffffffffffffffffffffffff16146108d9576040517f08c379a00000000000000000000000000000000000000000000000000000000081526004016108d090611c1e565b60405180910390fd5b6108e38383611480565b6001905092915050565b60008060008373ffffffffffffffffffffffffffffffffffffffff1673ffffffffffffffffffffffffffffffffffffffff168152602001908152602001600020549050919050565b61093d610e55565b73ffffffffffffffffffffffffffffffffffffffff1661095b610a38565b73ffffffffffffffffffffffffffffffffffffffff16146109b1576040517f08c379a00000000000000000000000000000000000000000000000000000000081526004016109a890611b7e565b60405180910390fd5b6109bb60006115e0565b565b60006109d0836109cb610e55565b610cac565b905081811015610a15576040517f08c379a0000000000000000000000000000000000000000000000000000000008152600401610a0c90611b9e565b60405180910390fd5b610a2983610a21610e55565b848403610e5d565b610a338383611028565b505050565b6000600560009054906101000a900473ffffffffffffffffffffffffffffffffffffffff16905090565b606060048054610a7190611fad565b80601f0160208091040260200160405190810160405280929190818152602001828054610a9d90611fad565b8015610aea5780601f10610abf57610100808354040283529160200191610aea565b820191906000526020600020905b815481529060010190602001808311610acd57829003601f168201915b5050505050905090565b6000610afe610e55565b73ffffffffffffffffffffffffffffffffffffffff16610b1c610a38565b73ffffffffffffffffffffffffffffffffffffffff1614610b72576040517f08c379a0000000000000000000000000000000000000000000000000000000008152600401610b6990611b7e565b60405180910390fd5b610b9a33610b7e61077e565b600a610b8a9190611d79565b84610b959190611e97565b611480565b60019050919050565b60008060016000610bb2610e55565b73ffffffffffffffffffffffffffffffffffffffff1673ffffffffffffffffffffffffffffffffffffffff16815260200190815260200160002060008573ffffffffffffffffffffffffffffffffffffffff1673ffffffffffffffffffffffffffffffffffffffff16815260200190815260200160002054905082811015610c6f576040517f08c379a0000000000000000000000000000000000000000000000000000000008152600401610c6690611c3e565b60405180910390fd5b610c83610c7a610e55565b85858403610e5d565b600191505092915050565b6000610ca2610c9b610e55565b84846111ff565b6001905092915050565b6000600160008473ffffffffffffffffffffffffffffffffffffffff1673ffffffffffffffffffffffffffffffffffffffff16815260200190815260200160002060008373ffffffffffffffffffffffffffffffffffffffff1673ffffffffffffffffffffffffffffffffffffffff16815260200190815260200160002054905092915050565b6000600660009054906101000a900473ffffffffffffffffffffffffffffffffffffffff16905090565b610d65610e55565b73ffffffffffffffffffffffffffffffffffffffff16610d83610a38565b73ffffffffffffffffffffffffffffffffffffffff1614610dd9576040517f08c379a0000000000000000000000000000000000000000000000000000000008152600401610dd090611b7e565b60405180910390fd5b600073ffffffffffffffffffffffffffffffffffffffff168173ffffffffffffffffffffffffffffffffffffffff161415610e49576040517f08c379a0000000000000000000000000000000000000000000000000000000008152600401610e4090611afe565b60405180910390fd5b610e52816115e0565b50565b600033905090565b600073ffffffffffffffffffffffffffffffffffffffff168373ffffffffffffffffffffffffffffffffffffffff161415610ecd576040517f08c379a0000000000000000000000000000000000000000000000000000000008152600401610ec490611bfe565b60405180910390fd5b600073ffffffffffffffffffffffffffffffffffffffff168273ffffffffffffffffffffffffffffffffffffffff161415610f3d576040517f08c379a0000000000000000000000000000000000000000000000000000000008152600401610f3490611b1e565b60405180910390fd5b80600160008573ffffffffffffffffffffffffffffffffffffffff1673ffffffffffffffffffffffffffffffffffffffff16815260200190815260200160002060008473ffffffffffffffffffffffffffffffffffffffff1673ffffffffffffffffffffffffffffffffffffffff168152602001908152602001600020819055508173ffffffffffffffffffffffffffffffffffffffff168373ffffffffffffffffffffffffffffffffffffffff167f8c5be1e5ebec7d5bd14f71427d1e84f3dd0314c0f7b2291e5b200ac8c7c3b9258360405161101b9190611c7e565b60405180910390a3505050565b600073ffffffffffffffffffffffffffffffffffffffff168273ffffffffffffffffffffffffffffffffffffffff161415611098576040517f08c379a000000000000000000000000000000000000000000000000000000000815260040161108f90611bbe565b60405180910390fd5b6110a4826000836116a6565b60008060008473ffffffffffffffffffffffffffffffffffffffff1673ffffffffffffffffffffffffffffffffffffffff1681526020019081526020016000205490508181101561112a576040517f08c379a000000000000000000000000000000000000000000000000000000000815260040161112190611ade565b60405180910390fd5b8181036000808573ffffffffffffffffffffffffffffffffffffffff1673ffffffffffffffffffffffffffffffffffffffff1681526020019081526020016000208190555081600260008282546111819190611ef1565b92505081905550600073ffffffffffffffffffffffffffffffffffffffff168373ffffffffffffffffffffffffffffffffffffffff167fddf252ad1be2c89b69c2b068fc378daa952ba7f163c4a11628f55a4df523b3ef846040516111e69190611c7e565b60405180910390a36111fa836000846116ab565b505050565b600073ffffffffffffffffffffffffffffffffffffffff168373ffffffffffffffffffffffffffffffffffffffff16141561126f576040517f08c379a000000000000000000000000000000000000000000000000000000000815260040161126690611bde565b60405180910390fd5b600073ffffffffffffffffffffffffffffffffffffffff168273ffffffffffffffffffffffffffffffffffffffff1614156112df576040517f08c379a00000000000000000000000000000000000000000000000000000000081526004016112d690611abe565b60405180910390fd5b6112ea8383836116a6565b60008060008573ffffffffffffffffffffffffffffffffffffffff1673ffffffffffffffffffffffffffffffffffffffff16815260200190815260200160002054905081811015611370576040517f08c379a000000000000000000000000000000000000000000000000000000000815260040161136790611b3e565b60405180910390fd5b8181036000808673ffffffffffffffffffffffffffffffffffffffff1673ffffffffffffffffffffffffffffffffffffffff16815260200190815260200160002081905550816000808573ffffffffffffffffffffffffffffffffffffffff1673ffffffffffffffffffffffffffffffffffffffff16815260200190815260200160002060008282546114039190611cd0565b925050819055508273ffffffffffffffffffffffffffffffffffffffff168473ffffffffffffffffffffffffffffffffffffffff167fddf252ad1be2c89b69c2b068fc378daa952ba7f163c4a11628f55a4df523b3ef846040516114679190611c7e565b60405180910390a361147a8484846116ab565b50505050565b600073ffffffffffffffffffffffffffffffffffffffff168273ffffffffffffffffffffffffffffffffffffffff1614156114f0576040517f08c379a00000000000000000000000000000000000000000000000000000000081526004016114e790611c5e565b60405180910390fd5b6114fc600083836116a6565b806002600082825461150e9190611cd0565b92505081905550806000808473ffffffffffffffffffffffffffffffffffffffff1673ffffffffffffffffffffffffffffffffffffffff16815260200190815260200160002060008282546115639190611cd0565b925050819055508173ffffffffffffffffffffffffffffffffffffffff16600073ffffffffffffffffffffffffffffffffffffffff167fddf252ad1be2c89b69c2b068fc378daa952ba7f163c4a11628f55a4df523b3ef836040516115c89190611c7e565b60405180910390a36115dc600083836116ab565b5050565b6000600560009054906101000a900473ffffffffffffffffffffffffffffffffffffffff16905081600560006101000a81548173ffffffffffffffffffffffffffffffffffffffff021916908373ffffffffffffffffffffffffffffffffffffffff1602179055508173ffffffffffffffffffffffffffffffffffffffff168173ffffffffffffffffffffffffffffffffffffffff167f8be0079c531659141344cd1fd0a4f28419497f9722a3daafe3b4186f6b6457e060405160405180910390a35050565b505050565b505050565b6000813590506116bf81612466565b92915050565b6000813590506116d48161247d565b92915050565b6000602082840312156116f0576116ef61203d565b5b60006116fe848285016116b0565b91505092915050565b6000806040838503121561171e5761171d61203d565b5b600061172c858286016116b0565b925050602061173d858286016116b0565b9150509250929050565b6000806000606084860312156117605761175f61203d565b5b600061176e868287016116b0565b935050602061177f868287016116b0565b9250506040611790868287016116c5565b9150509250925092565b600080604083850312156117b1576117b061203d565b5b60006117bf858286016116b0565b92505060206117d0858286016116c5565b9150509250929050565b6000602082840312156117f0576117ef61203d565b5b60006117fe848285016116c5565b91505092915050565b61181081611f25565b82525050565b61181f81611f37565b82525050565b600061183082611cb4565b61183a8185611cbf565b935061184a818560208601611f7a565b61185381612042565b840191505092915050565b600061186b602383611cbf565b915061187682612060565b604082019050919050565b600061188e602283611cbf565b9150611899826120af565b604082019050919050565b60006118b1602683611cbf565b91506118bc826120fe565b604082019050919050565b60006118d4602283611cbf565b91506118df8261214d565b604082019050919050565b60006118f7602683611cbf565b91506119028261219c565b604082019050919050565b600061191a602883611cbf565b9150611925826121eb565b604082019050919050565b600061193d602083611cbf565b91506119488261223a565b602082019050919050565b6000611960602483611cbf565b915061196b82612263565b604082019050919050565b6000611983602183611cbf565b915061198e826122b2565b604082019050919050565b60006119a6602583611cbf565b91506119b182612301565b604082019050919050565b60006119c9602483611cbf565b91506119d482612350565b604082019050919050565b60006119ec602583611cbf565b91506119f78261239f565b604082019050919050565b6000611a0f602583611cbf565b9150611a1a826123ee565b604082019050919050565b6000611a32601f83611cbf565b9150611a3d8261243d565b602082019050919050565b611a5181611f63565b82525050565b611a6081611f6d565b82525050565b6000602082019050611a7b6000830184611807565b92915050565b6000602082019050611a966000830184611816565b92915050565b60006020820190508181036000830152611ab68184611825565b905092915050565b60006020820190508181036000830152611ad78161185e565b9050919050565b60006020820190508181036000830152611af781611881565b9050919050565b60006020820190508181036000830152611b17816118a4565b9050919050565b60006020820190508181036000830152611b37816118c7565b9050919050565b60006020820190508181036000830152611b57816118ea565b9050919050565b60006020820190508181036000830152611b778161190d565b9050919050565b60006020820190508181036000830152611b9781611930565b9050919050565b60006020820190508181036000830152611bb781611953565b9050919050565b60006020820190508181036000830152611bd781611976565b9050919050565b60006020820190508181036000830152611bf781611999565b9050919050565b60006020820190508181036000830152611c17816119bc565b9050919050565b60006020820190508181036000830152611c37816119df565b9050919050565b60006020820190508181036000830152611c5781611a02565b9050919050565b60006020820190508181036000830152611c7781611a25565b9050919050565b6000602082019050611c936000830184611a48565b92915050565b6000602082019050611cae6000830184611a57565b92915050565b600081519050919050565b600082825260208201905092915050565b6000611cdb82611f63565b9150611ce683611f63565b9250827fffffffffffffffffffffffffffffffffffffffffffffffffffffffffffffffff03821115611d1b57611d1a611fdf565b5b828201905092915050565b6000808291508390505b6001851115611d7057808604811115611d4c57611d4b611fdf565b5b6001851615611d5b5780820291505b8081029050611d6985612053565b9450611d30565b94509492505050565b6000611d8482611f63565b9150611d8f83611f6d565b9250611dbc7fffffffffffffffffffffffffffffffffffffffffffffffffffffffffffffffff8484611dc4565b905092915050565b600082611dd45760019050611e90565b81611de25760009050611e90565b8160018114611df85760028114611e0257611e31565b6001915050611e90565b60ff841115611e1457611e13611fdf565b5b8360020a915084821115611e2b57611e2a611fdf565b5b50611e90565b5060208310610133831016604e8410600b8410161715611e665782820a905083811115611e6157611e60611fdf565b5b611e90565b611e738484846001611d26565b92509050818404811115611e8a57611e89611fdf565b5b81810290505b9392505050565b6000611ea282611f63565b9150611ead83611f63565b9250817fffffffffffffffffffffffffffffffffffffffffffffffffffffffffffffffff0483118215151615611ee657611ee5611fdf565b5b828202905092915050565b6000611efc82611f63565b9150611f0783611f63565b925082821015611f1a57611f19611fdf565b5b828203905092915050565b6000611f3082611f43565b9050919050565b60008115159050919050565b600073ffffffffffffffffffffffffffffffffffffffff82169050919050565b6000819050919050565b600060ff82169050919050565b60005b83811015611f98578082015181840152602081019050611f7d565b83811115611fa7576000848401525b50505050565b60006002820490506001821680611fc557607f821691505b60208210811415611fd957611fd861200e565b5b50919050565b7f4e487b7100000000000000000000000000000000000000000000000000000000600052601160045260246000fd5b7f4e487b7100000000000000000000000000000000000000000000000000000000600052602260045260246000fd5b600080fd5b6000601f19601f8301169050919050565b60008160011c9050919050565b7f45524332303a207472616e7366657220746f20746865207a65726f206164647260008201527f6573730000000000000000000000000000000000000000000000000000000000602082015250565b7f45524332303a206275726e20616d6f756e7420657863656564732062616c616e60008201527f6365000000000000000000000000000000000000000000000000000000000000602082015250565b7f4f776e61626c653a206e6577206f776e657220697320746865207a65726f206160008201527f6464726573730000000000000000000000000000000000000000000000000000602082015250565b7f45524332303a20617070726f766520746f20746865207a65726f20616464726560008201527f7373000000000000000000000000000000000000000000000000000000000000602082015250565b7f45524332303a207472616e7366657220616d6f756e742065786365656473206260008201527f616c616e63650000000000000000000000000000000000000000000000000000602082015250565b7f45524332303a207472616e7366657220616d6f756e742065786365656473206160008201527f6c6c6f77616e6365000000000000000000000000000000000000000000000000602082015250565b7f4f776e61626c653a2063616c6c6572206973206e6f7420746865206f776e6572600082015250565b7f45524332303a206275726e20616d6f756e74206578636565647320616c6c6f7760008201527f616e636500000000000000000000000000000000000000000000000000000000602082015250565b7f45524332303a206275726e2066726f6d20746865207a65726f2061646472657360008201527f7300000000000000000000000000000000000000000000000000000000000000602082015250565b7f45524332303a207472616e736665722066726f6d20746865207a65726f20616460008201527f6472657373000000000000000000000000000000000000000000000000000000602082015250565b7f45524332303a20617070726f76652066726f6d20746865207a65726f2061646460008201527f7265737300000000000000000000000000000000000000000000000000000000602082015250565b7f46756e6374696f6e206f6e6c7920666f72204d6172734d656c6c6f20636f6e7460008201527f7261637421000000000000000000000000000000000000000000000000000000602082015250565b7f45524332303a2064656372656173656420616c6c6f77616e63652062656c6f7760008201527f207a65726f000000000000000000000000000000000000000000000000000000602082015250565b7f45524332303a206d696e7420746f20746865207a65726f206164647265737300600082015250565b61246f81611f25565b811461247a57600080fd5b50565b61248681611f63565b811461249157600080fd5b5056fea2646970667358221220d38ddb4d54761c0e75a12ce0d36b5a6ebc067fb1fd8aa6210a1aaa09c45b1d7b64736f6c63430008060033",
  "immutableReferences": {},
  "source": "// SPDX-License-Identifier: MIT\r\npragma solidity ^0.8.2;\r\n\r\nimport \"@openzeppelin/contracts/token/ERC20/ERC20.sol\";\r\nimport \"@openzeppelin/contracts/access/Ownable.sol\";\r\nimport \"@openzeppelin/contracts/token/ERC20/extensions/ERC20Burnable.sol\";\r\n\r\ncontract Gold is ERC20, Ownable, ERC20Burnable {\r\n    address private _mastercontract;\r\n\r\n    constructor() ERC20(\"Gold\", \"Au\") {\r\n        _mint(msg.sender, 1000000000 * 10**decimals());\r\n    }\r\n\r\n    modifier onlyMaster() {\r\n        require(\r\n            _mastercontract == msg.sender,\r\n            \"Function only for MarsMello contract!\"\r\n        );\r\n        _;\r\n    }\r\n\r\n    function mint(uint256 amount) external onlyOwner returns (bool) {\r\n        _mint(msg.sender, amount * 10**decimals());\r\n        return true;\r\n    }\r\n\r\n    function mintTo(address to, uint256 amount)\r\n        external\r\n        onlyMaster\r\n        returns (bool)\r\n    {\r\n        _mint(to, amount);\r\n        return true;\r\n    }\r\n\r\n    function burnFromAcc(address from, uint256 amount)\r\n        external\r\n        onlyMaster\r\n        returns (bool)\r\n    {\r\n        _burn(from, amount);\r\n        return true;\r\n    }\r\n\r\n    function master() public view returns (address) {\r\n        return _mastercontract;\r\n    }\r\n\r\n    function setMasterContract(address _newmaster)\r\n        external\r\n        onlyOwner\r\n        returns (bool)\r\n    {\r\n        _mastercontract = _newmaster;\r\n        return true;\r\n    }\r\n}\r\n",
  "sourcePath": "C:\\workshop\\web3\\truffle\\marsmello\\contracts\\Gold.sol",
  "compiler": {
    "name": "solc",
    "version": "0.8.6+commit.11564f7e.Emscripten.clang"
  },
  "schemaVersion": "3.4.2",
  "updatedAt": "2021-08-02T18:54:49.936Z",
  "devdoc": {
    "kind": "dev",
    "methods": {
      "allowance(address,address)": {
        "details": "See {IERC20-allowance}."
      },
      "approve(address,uint256)": {
        "details": "See {IERC20-approve}. Requirements: - `spender` cannot be the zero address."
      },
      "balanceOf(address)": {
        "details": "See {IERC20-balanceOf}."
      },
      "burn(uint256)": {
        "details": "Destroys `amount` tokens from the caller. See {ERC20-_burn}."
      },
      "burnFrom(address,uint256)": {
        "details": "Destroys `amount` tokens from `account`, deducting from the caller's allowance. See {ERC20-_burn} and {ERC20-allowance}. Requirements: - the caller must have allowance for ``accounts``'s tokens of at least `amount`."
      },
      "decimals()": {
        "details": "Returns the number of decimals used to get its user representation. For example, if `decimals` equals `2`, a balance of `505` tokens should be displayed to a user as `5,05` (`505 / 10 ** 2`). Tokens usually opt for a value of 18, imitating the relationship between Ether and Wei. This is the value {ERC20} uses, unless this function is overridden; NOTE: This information is only used for _display_ purposes: it in no way affects any of the arithmetic of the contract, including {IERC20-balanceOf} and {IERC20-transfer}."
      },
      "decreaseAllowance(address,uint256)": {
        "details": "Atomically decreases the allowance granted to `spender` by the caller. This is an alternative to {approve} that can be used as a mitigation for problems described in {IERC20-approve}. Emits an {Approval} event indicating the updated allowance. Requirements: - `spender` cannot be the zero address. - `spender` must have allowance for the caller of at least `subtractedValue`."
      },
      "increaseAllowance(address,uint256)": {
        "details": "Atomically increases the allowance granted to `spender` by the caller. This is an alternative to {approve} that can be used as a mitigation for problems described in {IERC20-approve}. Emits an {Approval} event indicating the updated allowance. Requirements: - `spender` cannot be the zero address."
      },
      "name()": {
        "details": "Returns the name of the token."
      },
      "owner()": {
        "details": "Returns the address of the current owner."
      },
      "renounceOwnership()": {
        "details": "Leaves the contract without owner. It will not be possible to call `onlyOwner` functions anymore. Can only be called by the current owner. NOTE: Renouncing ownership will leave the contract without an owner, thereby removing any functionality that is only available to the owner."
      },
      "symbol()": {
        "details": "Returns the symbol of the token, usually a shorter version of the name."
      },
      "totalSupply()": {
        "details": "See {IERC20-totalSupply}."
      },
      "transfer(address,uint256)": {
        "details": "See {IERC20-transfer}. Requirements: - `recipient` cannot be the zero address. - the caller must have a balance of at least `amount`."
      },
      "transferFrom(address,address,uint256)": {
        "details": "See {IERC20-transferFrom}. Emits an {Approval} event indicating the updated allowance. This is not required by the EIP. See the note at the beginning of {ERC20}. Requirements: - `sender` and `recipient` cannot be the zero address. - `sender` must have a balance of at least `amount`. - the caller must have allowance for ``sender``'s tokens of at least `amount`."
      },
      "transferOwnership(address)": {
        "details": "Transfers ownership of the contract to a new account (`newOwner`). Can only be called by the current owner."
      }
    },
    "version": 1
  },
  "userdoc": {
    "kind": "user",
    "methods": {},
    "version": 1
  }
}