{
  "contractName": "Marsmello",
  "abi": [
    {
      "inputs": [],
      "stateMutability": "nonpayable",
      "type": "constructor"
    },
    {
      "anonymous": false,
      "inputs": [
        {
          "indexed": true,
          "internalType": "address",
          "name": "owner",
          "type": "address"
        },
        {
          "indexed": true,
          "internalType": "address",
          "name": "spender",
          "type": "address"
        },
        {
          "indexed": false,
          "internalType": "uint256",
          "name": "value",
          "type": "uint256"
        }
      ],
      "name": "Approval",
      "type": "event"
    },
    {
      "anonymous": false,
      "inputs": [
        {
          "indexed": true,
          "internalType": "address",
          "name": "previousOwner",
          "type": "address"
        },
        {
          "indexed": true,
          "internalType": "address",
          "name": "newOwner",
          "type": "address"
        }
      ],
      "name": "OwnershipTransferred",
      "type": "event"
    },
    {
      "anonymous": false,
      "inputs": [
        {
          "indexed": true,
          "internalType": "address",
          "name": "from",
          "type": "address"
        },
        {
          "indexed": true,
          "internalType": "address",
          "name": "to",
          "type": "address"
        },
        {
          "indexed": false,
          "internalType": "uint256",
          "name": "value",
          "type": "uint256"
        }
      ],
      "name": "Transfer",
      "type": "event"
    },
    {
      "inputs": [
        {
          "internalType": "address",
          "name": "owner",
          "type": "address"
        },
        {
          "internalType": "address",
          "name": "spender",
          "type": "address"
        }
      ],
      "name": "allowance",
      "outputs": [
        {
          "internalType": "uint256",
          "name": "",
          "type": "uint256"
        }
      ],
      "stateMutability": "view",
      "type": "function"
    },
    {
      "inputs": [
        {
          "internalType": "address",
          "name": "spender",
          "type": "address"
        },
        {
          "internalType": "uint256",
          "name": "amount",
          "type": "uint256"
        }
      ],
      "name": "approve",
      "outputs": [
        {
          "internalType": "bool",
          "name": "",
          "type": "bool"
        }
      ],
      "stateMutability": "nonpayable",
      "type": "function"
    },
    {
      "inputs": [
        {
          "internalType": "address",
          "name": "account",
          "type": "address"
        }
      ],
      "name": "balanceOf",
      "outputs": [
        {
          "internalType": "uint256",
          "name": "",
          "type": "uint256"
        }
      ],
      "stateMutability": "view",
      "type": "function"
    },
    {
      "inputs": [],
      "name": "decimals",
      "outputs": [
        {
          "internalType": "uint8",
          "name": "",
          "type": "uint8"
        }
      ],
      "stateMutability": "view",
      "type": "function"
    },
    {
      "inputs": [
        {
          "internalType": "address",
          "name": "spender",
          "type": "address"
        },
        {
          "internalType": "uint256",
          "name": "subtractedValue",
          "type": "uint256"
        }
      ],
      "name": "decreaseAllowance",
      "outputs": [
        {
          "internalType": "bool",
          "name": "",
          "type": "bool"
        }
      ],
      "stateMutability": "nonpayable",
      "type": "function"
    },
    {
      "inputs": [
        {
          "internalType": "address",
          "name": "spender",
          "type": "address"
        },
        {
          "internalType": "uint256",
          "name": "addedValue",
          "type": "uint256"
        }
      ],
      "name": "increaseAllowance",
      "outputs": [
        {
          "internalType": "bool",
          "name": "",
          "type": "bool"
        }
      ],
      "stateMutability": "nonpayable",
      "type": "function"
    },
    {
      "inputs": [],
      "name": "name",
      "outputs": [
        {
          "internalType": "string",
          "name": "",
          "type": "string"
        }
      ],
      "stateMutability": "view",
      "type": "function"
    },
    {
      "inputs": [],
      "name": "owner",
      "outputs": [
        {
          "internalType": "address",
          "name": "",
          "type": "address"
        }
      ],
      "stateMutability": "view",
      "type": "function"
    },
    {
      "inputs": [],
      "name": "renounceOwnership",
      "outputs": [],
      "stateMutability": "nonpayable",
      "type": "function"
    },
    {
      "inputs": [],
      "name": "symbol",
      "outputs": [
        {
          "internalType": "string",
          "name": "",
          "type": "string"
        }
      ],
      "stateMutability": "view",
      "type": "function"
    },
    {
      "inputs": [],
      "name": "totalSupply",
      "outputs": [
        {
          "internalType": "uint256",
          "name": "",
          "type": "uint256"
        }
      ],
      "stateMutability": "view",
      "type": "function"
    },
    {
      "inputs": [
        {
          "internalType": "address",
          "name": "recipient",
          "type": "address"
        },
        {
          "internalType": "uint256",
          "name": "amount",
          "type": "uint256"
        }
      ],
      "name": "transfer",
      "outputs": [
        {
          "internalType": "bool",
          "name": "",
          "type": "bool"
        }
      ],
      "stateMutability": "nonpayable",
      "type": "function"
    },
    {
      "inputs": [
        {
          "internalType": "address",
          "name": "sender",
          "type": "address"
        },
        {
          "internalType": "address",
          "name": "recipient",
          "type": "address"
        },
        {
          "internalType": "uint256",
          "name": "amount",
          "type": "uint256"
        }
      ],
      "name": "transferFrom",
      "outputs": [
        {
          "internalType": "bool",
          "name": "",
          "type": "bool"
        }
      ],
      "stateMutability": "nonpayable",
      "type": "function"
    },
    {
      "inputs": [
        {
          "internalType": "address",
          "name": "newOwner",
          "type": "address"
        }
      ],
      "name": "transferOwnership",
      "outputs": [],
      "stateMutability": "nonpayable",
      "type": "function"
    },
    {
      "inputs": [
        {
          "internalType": "address",
          "name": "a",
          "type": "address"
        }
      ],
      "name": "chechUser",
      "outputs": [],
      "stateMutability": "nonpayable",
      "type": "function"
    },
    {
      "inputs": [
        {
          "internalType": "address",
          "name": "user",
          "type": "address"
        }
      ],
      "name": "getUserData",
      "outputs": [
        {
          "internalType": "uint128[]",
          "name": "",
          "type": "uint128[]"
        },
        {
          "components": [
            {
              "internalType": "int128",
              "name": "x",
              "type": "int128"
            },
            {
              "internalType": "int128",
              "name": "y",
              "type": "int128"
            }
          ],
          "internalType": "struct Marsmello.CoOrdinates[]",
          "name": "",
          "type": "tuple[]"
        },
        {
          "internalType": "uint128[]",
          "name": "",
          "type": "uint128[]"
        },
        {
          "internalType": "uint64",
          "name": "",
          "type": "uint64"
        }
      ],
      "stateMutability": "view",
      "type": "function"
    },
    {
      "inputs": [],
      "name": "getLandPrice",
      "outputs": [
        {
          "internalType": "uint256",
          "name": "",
          "type": "uint256"
        }
      ],
      "stateMutability": "view",
      "type": "function"
    },
    {
      "inputs": [
        {
          "internalType": "uint256",
          "name": "rand",
          "type": "uint256"
        }
      ],
      "name": "getRandomNumber",
      "outputs": [
        {
          "internalType": "uint128",
          "name": "",
          "type": "uint128"
        }
      ],
      "stateMutability": "view",
      "type": "function"
    },
    {
      "inputs": [
        {
          "internalType": "uint128",
          "name": "price",
          "type": "uint128"
        },
        {
          "internalType": "bool",
          "name": "land_dependent",
          "type": "bool"
        },
        {
          "internalType": "uint128[]",
          "name": "r1",
          "type": "uint128[]"
        },
        {
          "internalType": "int128[]",
          "name": "r2",
          "type": "int128[]"
        }
      ],
      "name": "addFactoryType",
      "outputs": [
        {
          "internalType": "uint256",
          "name": "",
          "type": "uint256"
        }
      ],
      "stateMutability": "nonpayable",
      "type": "function"
    },
    {
      "inputs": [],
      "name": "deletefactoryType",
      "outputs": [],
      "stateMutability": "nonpayable",
      "type": "function"
    },
    {
      "inputs": [],
      "name": "getFactoryType",
      "outputs": [
        {
          "components": [
            {
              "internalType": "uint128",
              "name": "price",
              "type": "uint128"
            },
            {
              "components": [
                {
                  "internalType": "uint128",
                  "name": "id",
                  "type": "uint128"
                },
                {
                  "internalType": "int128",
                  "name": "rate",
                  "type": "int128"
                }
              ],
              "internalType": "struct Marsmello.Resource[]",
              "name": "resources",
              "type": "tuple[]"
            },
            {
              "internalType": "bool",
              "name": "land_dependent",
              "type": "bool"
            }
          ],
          "internalType": "struct Marsmello.Factory_type[]",
          "name": "",
          "type": "tuple[]"
        }
      ],
      "stateMutability": "view",
      "type": "function"
    },
    {
      "inputs": [
        {
          "internalType": "address",
          "name": "token_address",
          "type": "address"
        }
      ],
      "name": "addResource",
      "outputs": [
        {
          "internalType": "uint256",
          "name": "",
          "type": "uint256"
        }
      ],
      "stateMutability": "nonpayable",
      "type": "function"
    },
    {
      "inputs": [
        {
          "internalType": "uint256",
          "name": "id",
          "type": "uint256"
        },
        {
          "internalType": "address",
          "name": "token_address",
          "type": "address"
        }
      ],
      "name": "editResource",
      "outputs": [],
      "stateMutability": "nonpayable",
      "type": "function"
    },
    {
      "inputs": [],
      "name": "deleteResource",
      "outputs": [],
      "stateMutability": "nonpayable",
      "type": "function"
    },
    {
      "inputs": [],
      "name": "getResource",
      "outputs": [
        {
          "internalType": "address[]",
          "name": "",
          "type": "address[]"
        }
      ],
      "stateMutability": "view",
      "type": "function"
    },
    {
      "inputs": [
        {
          "internalType": "string",
          "name": "name",
          "type": "string"
        },
        {
          "internalType": "uint8",
          "name": "ftype",
          "type": "uint8"
        }
      ],
      "name": "mintFactory",
      "outputs": [],
      "stateMutability": "nonpayable",
      "type": "function"
    },
    {
      "inputs": [
        {
          "internalType": "uint128",
          "name": "seed",
          "type": "uint128"
        },
        {
          "internalType": "uint64",
          "name": "ftype",
          "type": "uint64"
        }
      ],
      "name": "getLandRate",
      "outputs": [
        {
          "internalType": "uint128",
          "name": "",
          "type": "uint128"
        }
      ],
      "stateMutability": "view",
      "type": "function"
    },
    {
      "inputs": [
        {
          "internalType": "int32",
          "name": "x",
          "type": "int32"
        },
        {
          "internalType": "int32",
          "name": "y",
          "type": "int32"
        }
      ],
      "name": "mintLand",
      "outputs": [],
      "stateMutability": "nonpayable",
      "type": "function"
    },
    {
      "inputs": [
        {
          "internalType": "uint64",
          "name": "factory_id",
          "type": "uint64"
        },
        {
          "internalType": "int128",
          "name": "x",
          "type": "int128"
        },
        {
          "internalType": "int128",
          "name": "y",
          "type": "int128"
        }
      ],
      "name": "placeFactory",
      "outputs": [],
      "stateMutability": "nonpayable",
      "type": "function"
    },
    {
      "inputs": [
        {
          "internalType": "address",
          "name": "to",
          "type": "address"
        },
        {
          "internalType": "int128",
          "name": "x",
          "type": "int128"
        },
        {
          "internalType": "int128",
          "name": "y",
          "type": "int128"
        }
      ],
      "name": "transferLand",
      "outputs": [],
      "stateMutability": "nonpayable",
      "type": "function"
    },
    {
      "inputs": [
        {
          "internalType": "address",
          "name": "to",
          "type": "address"
        },
        {
          "internalType": "uint64",
          "name": "factory_id",
          "type": "uint64"
        }
      ],
      "name": "transferFactory",
      "outputs": [],
      "stateMutability": "nonpayable",
      "type": "function"
    },
    {
      "inputs": [],
      "name": "claimAll",
      "outputs": [],
      "stateMutability": "nonpayable",
      "type": "function"
    },
    {
      "inputs": [
        {
          "internalType": "int128",
          "name": "x",
          "type": "int128"
        },
        {
          "internalType": "int128",
          "name": "y",
          "type": "int128"
        }
      ],
      "name": "getArea",
      "outputs": [
        {
          "components": [
            {
              "internalType": "address",
              "name": "owner",
              "type": "address"
            },
            {
              "internalType": "uint128",
              "name": "seed",
              "type": "uint128"
            },
            {
              "components": [
                {
                  "internalType": "string",
                  "name": "name",
                  "type": "string"
                },
                {
                  "internalType": "address",
                  "name": "owner",
                  "type": "address"
                },
                {
                  "internalType": "uint64",
                  "name": "ftype",
                  "type": "uint64"
                },
                {
                  "internalType": "uint64",
                  "name": "efficiency",
                  "type": "uint64"
                },
                {
                  "components": [
                    {
                      "internalType": "int128",
                      "name": "x",
                      "type": "int128"
                    },
                    {
                      "internalType": "int128",
                      "name": "y",
                      "type": "int128"
                    }
                  ],
                  "internalType": "struct Marsmello.CoOrdinates",
                  "name": "placedon",
                  "type": "tuple"
                }
              ],
              "internalType": "struct Marsmello.Factory",
              "name": "ontop",
              "type": "tuple"
            }
          ],
          "internalType": "struct Marsmello.Relay[41][41]",
          "name": "",
          "type": "tuple[41][41]"
        }
      ],
      "stateMutability": "view",
      "type": "function"
    }
  ],
  "bytecode": "0x60806040526040518060400160405280600981526020017f4d6172734d656c6c6f0000000000000000000000000000000000000000000000815250600690805190602001906200005192919062000740565b506040518060400160405280600381526020017f4d4c4f0000000000000000000000000000000000000000000000000000000000815250600790805190602001906200009f92919062000740565b50633b9aca0060085567ab54a98ceb1f0ad2600a55620000c4620004e660201b60201c565b600a620000d2919062000930565b6103e8620000e1919062000a6d565b600b556005600c556000600d55348015620000fb57600080fd5b50600680546200010b9062000ae5565b80601f0160208091040260200160405190810160405280929190818152602001828054620001399062000ae5565b80156200018a5780601f106200015e576101008083540402835291602001916200018a565b820191906000526020600020905b8154815290600101906020018083116200016c57829003601f168201915b5050505050600780546200019e9062000ae5565b80601f0160208091040260200160405190810160405280929190818152602001828054620001cc9062000ae5565b80156200021d5780601f10620001f1576101008083540402835291602001916200021d565b820191906000526020600020905b815481529060010190602001808311620001ff57829003601f168201915b505050505081600390805190602001906200023a92919062000740565b5080600490805190602001906200025392919062000740565b505050620002766200026a620004ef60201b60201c565b620004f760201b60201c565b620002b4336200028b620004e660201b60201c565b600a62000299919062000930565b600854620002a8919062000a6d565b620005bd60201b60201c565b4260098190555060106040518060a001604052806040518060400160405280600481526020017f566f6964000000000000000000000000000000000000000000000000000000008152508152602001600073ffffffffffffffffffffffffffffffffffffffff168152602001600067ffffffffffffffff168152602001600067ffffffffffffffff16815260200160405180604001604052806000600f0b81526020016000600f0b81525081525090806001815401808255809150506001900390600052602060002090600402016000909190919091506000820151816000019080519060200190620003a992919062000740565b5060208201518160010160006101000a81548173ffffffffffffffffffffffffffffffffffffffff021916908373ffffffffffffffffffffffffffffffffffffffff16021790555060408201518160010160146101000a81548167ffffffffffffffff021916908367ffffffffffffffff16021790555060608201518160020160006101000a81548167ffffffffffffffff021916908367ffffffffffffffff16021790555060808201518160030160008201518160000160006101000a8154816fffffffffffffffffffffffffffffffff0219169083600f0b6fffffffffffffffffffffffffffffffff16021790555060208201518160000160106101000a8154816fffffffffffffffffffffffffffffffff0219169083600f0b6fffffffffffffffffffffffffffffffff1602179055505050505062000baf565b60006012905090565b600033905090565b6000600560009054906101000a900473ffffffffffffffffffffffffffffffffffffffff16905081600560006101000a81548173ffffffffffffffffffffffffffffffffffffffff021916908373ffffffffffffffffffffffffffffffffffffffff1602179055508173ffffffffffffffffffffffffffffffffffffffff168173ffffffffffffffffffffffffffffffffffffffff167f8be0079c531659141344cd1fd0a4f28419497f9722a3daafe3b4186f6b6457e060405160405180910390a35050565b600073ffffffffffffffffffffffffffffffffffffffff168273ffffffffffffffffffffffffffffffffffffffff16141562000630576040517f08c379a0000000000000000000000000000000000000000000000000000000008152600401620006279062000828565b60405180910390fd5b62000644600083836200073660201b60201c565b806002600082825462000658919062000878565b92505081905550806000808473ffffffffffffffffffffffffffffffffffffffff1673ffffffffffffffffffffffffffffffffffffffff1681526020019081526020016000206000828254620006af919062000878565b925050819055508173ffffffffffffffffffffffffffffffffffffffff16600073ffffffffffffffffffffffffffffffffffffffff167fddf252ad1be2c89b69c2b068fc378daa952ba7f163c4a11628f55a4df523b3ef836040516200071691906200084a565b60405180910390a362000732600083836200073b60201b60201c565b5050565b505050565b505050565b8280546200074e9062000ae5565b90600052602060002090601f016020900481019282620007725760008555620007be565b82601f106200078d57805160ff1916838001178555620007be565b82800160010185558215620007be579182015b82811115620007bd578251825591602001919060010190620007a0565b5b509050620007cd9190620007d1565b5090565b5b80821115620007ec576000816000905550600101620007d2565b5090565b6000620007ff601f8362000867565b91506200080c8262000b86565b602082019050919050565b620008228162000ace565b82525050565b600060208201905081810360008301526200084381620007f0565b9050919050565b600060208201905062000861600083018462000817565b92915050565b600082825260208201905092915050565b6000620008858262000ace565b9150620008928362000ace565b9250827fffffffffffffffffffffffffffffffffffffffffffffffffffffffffffffffff03821115620008ca57620008c962000b1b565b5b828201905092915050565b6000808291508390505b60018511156200092757808604811115620008ff57620008fe62000b1b565b5b60018516156200090f5780820291505b80810290506200091f8562000b79565b9450620008df565b94509492505050565b60006200093d8262000ace565b91506200094a8362000ad8565b9250620009797fffffffffffffffffffffffffffffffffffffffffffffffffffffffffffffffff848462000981565b905092915050565b60008262000993576001905062000a66565b81620009a3576000905062000a66565b8160018114620009bc5760028114620009c757620009fd565b600191505062000a66565b60ff841115620009dc57620009db62000b1b565b5b8360020a915084821115620009f657620009f562000b1b565b5b5062000a66565b5060208310610133831016604e8410600b841016171562000a375782820a90508381111562000a315762000a3062000b1b565b5b62000a66565b62000a468484846001620008d5565b9250905081840481111562000a605762000a5f62000b1b565b5b81810290505b9392505050565b600062000a7a8262000ace565b915062000a878362000ace565b9250817fffffffffffffffffffffffffffffffffffffffffffffffffffffffffffffffff048311821515161562000ac35762000ac262000b1b565b5b828202905092915050565b6000819050919050565b600060ff82169050919050565b6000600282049050600182168062000afe57607f821691505b6020821081141562000b155762000b1462000b4a565b5b50919050565b7f4e487b7100000000000000000000000000000000000000000000000000000000600052601160045260246000fd5b7f4e487b7100000000000000000000000000000000000000000000000000000000600052602260045260246000fd5b60008160011c9050919050565b7f45524332303a206d696e7420746f20746865207a65726f206164647265737300600082015250565b61680b8062000bbf6000396000f3fe608060405234801561001057600080fd5b50600436106101fb5760003560e01c80638da5cb5b1161011a578063bd2a3bbd116100ad578063dd8105ac1161007c578063dd8105ac146105c6578063e322fd56146105e2578063f2fde38b146105ec578063f8648ad314610608578063ffc9896b14610638576101fb565b8063bd2a3bbd14610552578063d1058e591461056e578063dbb9c8d414610578578063dd62ed3e14610596576101fb565b8063a9059cbb116100e9578063a9059cbb146104b8578063ae74c5e3146104e8578063b37217a414610504578063bb65dc8314610534576101fb565b80638da5cb5b1461043057806395d89b411461044e578063a457c2d71461046c578063a52b4efa1461049c576101fb565b80634c8a28dc1161019257806370a082311161016157806370a08231146103aa57806370ba2e05146103da578063715018a6146103f657806374a172db14610400576101fb565b80634c8a28dc146103245780635bc05aae1461035457806360449f931461038457806362f4dfb51461038e576101fb565b8063313ce567116101ce578063313ce5671461029c57806335b85d7a146102ba57806339509351146102d85780634379c02c14610308576101fb565b806306fdde0314610200578063095ea7b31461021e57806318160ddd1461024e57806323b872dd1461026c575b600080fd5b61020861066b565b604051610215919061566f565b60405180910390f35b6102386004803603810190610233919061492b565b6106fd565b6040516102459190615654565b60405180910390f35b61025661071b565b60405161026391906158ac565b60405180910390f35b61028660048036038101906102819190614885565b610725565b6040516102939190615654565b60405180910390f35b6102a461081d565b6040516102b191906158c7565b60405180910390f35b6102c2610826565b6040516102cf91906158ac565b60405180910390f35b6102f260048036038101906102ed919061492b565b610830565b6040516102ff9190615654565b60405180910390f35b610322600480360381019061031d919061496b565b6108dc565b005b61033e60048036038101906103399190614b12565b610cb1565b60405161034b91906158ac565b60405180910390f35b61036e60048036038101906103699190614818565b610fb9565b60405161037b91906158ac565b60405180910390f35b61038c6110b3565b005b6103a860048036038101906103a39190614c66565b611178565b005b6103c460048036038101906103bf9190614818565b611ac4565b6040516103d191906158ac565b60405180910390f35b6103f460048036038101906103ef9190614a85565b611b0c565b005b6103fe611f3a565b005b61041a60048036038101906104159190614a05565b611fc2565b60405161042791906155b6565b60405180910390f35b610438612415565b6040516104459190615550565b60405180910390f35b61045661243f565b604051610463919061566f565b60405180910390f35b6104866004803603810190610481919061492b565b6124d1565b6040516104939190615654565b60405180910390f35b6104b660048036038101906104b19190614a45565b6125bc565b005b6104d260048036038101906104cd919061492b565b6129ce565b6040516104df9190615654565b60405180910390f35b61050260048036038101906104fd91906148d8565b6129ec565b005b61051e60048036038101906105199190614bf9565b612f23565b60405161052b9190615891565b60405180910390f35b61053c612f65565b6040516105499190615594565b60405180910390f35b61056c60048036038101906105679190614818565b612ff3565b005b6105766130f2565b005b610580613485565b60405161058d91906155d8565b60405180910390f35b6105b060048036038101906105ab9190614845565b61360b565b6040516105bd91906158ac565b60405180910390f35b6105e060048036038101906105db9190614c26565b613692565b005b6105ea61376f565b005b61060660048036038101906106019190614818565b61385f565b005b610622600480360381019061061d9190614bb9565b613957565b60405161062f9190615891565b60405180910390f35b610652600480360381019061064d9190614818565b613a01565b60405161066294939291906155fa565b60405180910390f35b60606003805461067a90616094565b80601f01602080910402602001604051908101604052809291908181526020018280546106a690616094565b80156106f35780601f106106c8576101008083540402835291602001916106f3565b820191906000526020600020905b8154815290600101906020018083116106d657829003601f168201915b5050505050905090565b600061071161070a613cef565b8484613cf7565b6001905092915050565b6000600254905090565b6000610732848484613ec2565b6000600160008673ffffffffffffffffffffffffffffffffffffffff1673ffffffffffffffffffffffffffffffffffffffff168152602001908152602001600020600061077d613cef565b73ffffffffffffffffffffffffffffffffffffffff1673ffffffffffffffffffffffffffffffffffffffff168152602001908152602001600020549050828110156107fd576040517f08c379a00000000000000000000000000000000000000000000000000000000081526004016107f490615751565b60405180910390fd5b61081185610809613cef565b858403613cf7565b60019150509392505050565b60006012905090565b6000600b54905090565b60006108d261083d613cef565b84846001600061084b613cef565b73ffffffffffffffffffffffffffffffffffffffff1673ffffffffffffffffffffffffffffffffffffffff16815260200190815260200160002060008873ffffffffffffffffffffffffffffffffffffffff1673ffffffffffffffffffffffffffffffffffffffff168152602001908152602001600020546108cd9190615b50565b613cf7565b6001905092915050565b8067ffffffffffffffff163373ffffffffffffffffffffffffffffffffffffffff1660108281548110610912576109116162ab565b5b906000526020600020906004020160010160009054906101000a900473ffffffffffffffffffffffffffffffffffffffff1673ffffffffffffffffffffffffffffffffffffffff161461099a576040517f08c379a000000000000000000000000000000000000000000000000000000000815260040161099190615731565b60405180910390fd5b600060108367ffffffffffffffff16815481106109ba576109b96162ab565b5b90600052602060002090600402019050610a1b816003016040518060400160405290816000820160009054906101000a9004600f0b600f0b600f0b81526020016000820160109054906101000a9004600f0b600f0b600f0b81525050614143565b610a2e8367ffffffffffffffff166141de565b838160010160006101000a81548173ffffffffffffffffffffffffffffffffffffffff021916908373ffffffffffffffffffffffffffffffffffffffff16021790555060005b601260003373ffffffffffffffffffffffffffffffffffffffff1673ffffffffffffffffffffffffffffffffffffffff16815260200190815260200160002060000180549050811015610bfa578367ffffffffffffffff16601260003373ffffffffffffffffffffffffffffffffffffffff1673ffffffffffffffffffffffffffffffffffffffff1681526020019081526020016000206000018281548110610b2057610b1f6162ab565b5b90600052602060002090600291828204019190066010029054906101000a90046fffffffffffffffffffffffffffffffff166fffffffffffffffffffffffffffffffff161415610be7576000601260003373ffffffffffffffffffffffffffffffffffffffff1673ffffffffffffffffffffffffffffffffffffffff1681526020019081526020016000206000018281548110610bc057610bbf6162ab565b5b90600052602060002090600291828204019190066010029054906101000a90505050610bfa565b8080610bf2906160ff565b915050610a74565b50601260008573ffffffffffffffffffffffffffffffffffffffff1673ffffffffffffffffffffffffffffffffffffffff168152602001908152602001600020600001839080600181540180825580915050600190039060005260206000209060029182820401919006601002909167ffffffffffffffff16909190916101000a8154816fffffffffffffffffffffffffffffffff02191690836fffffffffffffffffffffffffffffffff16021790555050505050565b6000610cbb613cef565b73ffffffffffffffffffffffffffffffffffffffff16610cd9612415565b73ffffffffffffffffffffffffffffffffffffffff1614610d2f576040517f08c379a0000000000000000000000000000000000000000000000000000000008152600401610d2690615771565b60405180910390fd5b828290508585905014610d77576040517f08c379a0000000000000000000000000000000000000000000000000000000008152600401610d6e90615851565b60405180910390fd5b60116001816001815401808255809150500390600052602060002090505060006001601180549050610da99190615f72565b90508760118281548110610dc057610dbf6162ab565b5b906000526020600020906003020160000160006101000a8154816fffffffffffffffffffffffffffffffff02191690836fffffffffffffffffffffffffffffffff1602179055508660118281548110610e1c57610e1b6162ab565b5b906000526020600020906003020160020160006101000a81548160ff02191690831515021790555060005b86869050811015610faa5760118281548110610e6657610e656162ab565b5b90600052602060002090600302016001016040518060400160405280898985818110610e9557610e946162ab565b5b9050602002016020810190610eaa9190614ae5565b6fffffffffffffffffffffffffffffffff168152602001878785818110610ed457610ed36162ab565b5b9050602002016020810190610ee991906149d8565b600f0b8152509080600181540180825580915050600190039060005260206000200160009091909190915060008201518160000160006101000a8154816fffffffffffffffffffffffffffffffff02191690836fffffffffffffffffffffffffffffffff16021790555060208201518160000160106101000a8154816fffffffffffffffffffffffffffffffff0219169083600f0b6fffffffffffffffffffffffffffffffff16021790555050508080610fa2906160ff565b915050610e47565b50809150509695505050505050565b6000610fc3613cef565b73ffffffffffffffffffffffffffffffffffffffff16610fe1612415565b73ffffffffffffffffffffffffffffffffffffffff1614611037576040517f08c379a000000000000000000000000000000000000000000000000000000000815260040161102e90615771565b60405180910390fd5b600e829080600181540180825580915050600190039060005260206000200160009091909190916101000a81548173ffffffffffffffffffffffffffffffffffffffff021916908373ffffffffffffffffffffffffffffffffffffffff1602179055506001600e805490506110ac9190615f72565b9050919050565b6110bb613cef565b73ffffffffffffffffffffffffffffffffffffffff166110d9612415565b73ffffffffffffffffffffffffffffffffffffffff161461112f576040517f08c379a000000000000000000000000000000000000000000000000000000000815260040161112690615771565b60405180910390fd5b600e8054806111415761114061627c565b5b6001900381819060005260206000200160006101000a81549073ffffffffffffffffffffffffffffffffffffffff02191690559055565b81813373ffffffffffffffffffffffffffffffffffffffff16600f600084600f0b600f0b8152602001908152602001600020600083600f0b600f0b815260200190815260200160002060000160009054906101000a900473ffffffffffffffffffffffffffffffffffffffff1673ffffffffffffffffffffffffffffffffffffffff161461123b576040517f08c379a0000000000000000000000000000000000000000000000000000000008152600401611232906157b1565b60405180910390fd5b8467ffffffffffffffff163373ffffffffffffffffffffffffffffffffffffffff1660108281548110611271576112706162ab565b5b906000526020600020906004020160010160009054906101000a900473ffffffffffffffffffffffffffffffffffffffff1673ffffffffffffffffffffffffffffffffffffffff16146112f9576040517f08c379a00000000000000000000000000000000000000000000000000000000081526004016112f090615731565b60405180910390fd5b6113016130f2565b61136b600f600087600f0b600f0b8152602001908152602001600020600086600f0b600f0b815260200190815260200160002060010160109054906101000a90046fffffffffffffffffffffffffffffffff166fffffffffffffffffffffffffffffffff166141de565b6113e760108767ffffffffffffffff168154811061138c5761138b6162ab565b5b90600052602060002090600402016003016040518060400160405290816000820160009054906101000a9004600f0b600f0b600f0b81526020016000820160109054906101000a9004600f0b600f0b600f0b81525050614143565b8567ffffffffffffffff16600f600087600f0b600f0b8152602001908152602001600020600086600f0b600f0b815260200190815260200160002060010160106101000a8154816fffffffffffffffffffffffffffffffff02191690836fffffffffffffffffffffffffffffffff160217905550600060108767ffffffffffffffff168154811061147b5761147a6162ab565b5b90600052602060002090600402019050604051806040016040528087600f0b815260200186600f0b8152508160030160008201518160000160006101000a8154816fffffffffffffffffffffffffffffffff0219169083600f0b6fffffffffffffffffffffffffffffffff16021790555060208201518160000160106101000a8154816fffffffffffffffffffffffffffffffff0219169083600f0b6fffffffffffffffffffffffffffffffff16021790555090505060005b60118260010160149054906101000a900467ffffffffffffffff1667ffffffffffffffff168154811061156a576115696162ab565b5b906000526020600020906003020160010180549050811015611aba57600060118360010160149054906101000a900467ffffffffffffffff1667ffffffffffffffff16815481106115be576115bd6162ab565b5b906000526020600020906003020160010182815481106115e1576115e06162ab565b5b906000526020600020016040518060400160405290816000820160009054906101000a90046fffffffffffffffffffffffffffffffff166fffffffffffffffffffffffffffffffff166fffffffffffffffffffffffffffffffff1681526020016000820160109054906101000a9004600f0b600f0b600f0b81525050905060008160200151600f0b121561190d578260020160009054906101000a900467ffffffffffffffff1667ffffffffffffffff1681602001517fffffffffffffffffffffffffffffffffffffffffffffffffffffffffffffffff6116c29190615d79565b6116cc9190615e70565b6fffffffffffffffffffffffffffffffff16601260003373ffffffffffffffffffffffffffffffffffffffff1673ffffffffffffffffffffffffffffffffffffffff16815260200190815260200160002060020182600001516fffffffffffffffffffffffffffffffff1681548110611748576117476162ab565b5b90600052602060002090600291828204019190066010029054906101000a90046fffffffffffffffffffffffffffffffff166fffffffffffffffffffffffffffffffff16116117cc576040517f08c379a00000000000000000000000000000000000000000000000000000000081526004016117c390615711565b60405180910390fd5b8260020160009054906101000a900467ffffffffffffffff1667ffffffffffffffff1681602001517fffffffffffffffffffffffffffffffffffffffffffffffffffffffffffffffff61181f9190615d79565b6118299190615e70565b601260003373ffffffffffffffffffffffffffffffffffffffff1673ffffffffffffffffffffffffffffffffffffffff16815260200190815260200160002060020182600001516fffffffffffffffffffffffffffffffff1681548110611893576118926162ab565b5b90600052602060002090600291828204019190066010028282829054906101000a90046fffffffffffffffffffffffffffffffff166118d29190615f3e565b92506101000a8154816fffffffffffffffffffffffffffffffff02191690836fffffffffffffffffffffffffffffffff160217905550611aa6565b6064611980600f60008b600f0b600f0b815260200190815260200160002060008a600f0b600f0b815260200190815260200160002060010160009054906101000a90046fffffffffffffffffffffffffffffffff168560010160149054906101000a900467ffffffffffffffff16613957565b8460020160009054906101000a900467ffffffffffffffff1667ffffffffffffffff1683602001516119b29190615e70565b6119bc9190615e70565b6119c69190615ba6565b601260003373ffffffffffffffffffffffffffffffffffffffff1673ffffffffffffffffffffffffffffffffffffffff16815260200190815260200160002060020182600001516fffffffffffffffffffffffffffffffff1681548110611a3057611a2f6162ab565b5b90600052602060002090600291828204019190066010028282829054906101000a90046fffffffffffffffffffffffffffffffff16611a6f9190615b0a565b92506101000a8154816fffffffffffffffffffffffffffffffff02191690836fffffffffffffffffffffffffffffffff1602179055505b508080611ab2906160ff565b915050611534565b5050505050505050565b60008060008373ffffffffffffffffffffffffffffffffffffffff1673ffffffffffffffffffffffffffffffffffffffff168152602001908152602001600020549050919050565b60118160ff1681548110611b2357611b226162ab565b5b906000526020600020906003020160000160009054906101000a90046fffffffffffffffffffffffffffffffff166fffffffffffffffffffffffffffffffff16611b6c33611ac4565b1015611bad576040517f08c379a0000000000000000000000000000000000000000000000000000000008152600401611ba4906157d1565b60405180910390fd5b611bb633612ff3565b6000611bc6601080549050612f23565b905060106040518060a0016040528086868080601f016020809104026020016040519081016040528093929190818152602001838380828437600081840152601f19601f8201169050808301925050505050505081526020013373ffffffffffffffffffffffffffffffffffffffff1681526020018460ff1667ffffffffffffffff168152602001603384611c5b919061615c565b6032611c679190615b0a565b67ffffffffffffffff16815260200160405180604001604052806000600f0b81526020016000600f0b81525081525090806001815401808255809150506001900390600052602060002090600402016000909190919091506000820151816000019080519060200190611cdb92919061440e565b5060208201518160010160006101000a81548173ffffffffffffffffffffffffffffffffffffffff021916908373ffffffffffffffffffffffffffffffffffffffff16021790555060408201518160010160146101000a81548167ffffffffffffffff021916908367ffffffffffffffff16021790555060608201518160020160006101000a81548167ffffffffffffffff021916908367ffffffffffffffff16021790555060808201518160030160008201518160000160006101000a8154816fffffffffffffffffffffffffffffffff0219169083600f0b6fffffffffffffffffffffffffffffffff16021790555060208201518160000160106101000a8154816fffffffffffffffffffffffffffffffff0219169083600f0b6fffffffffffffffffffffffffffffffff16021790555050505050611e73333060118560ff1681548110611e2e57611e2d6162ab565b5b906000526020600020906003020160000160009054906101000a90046fffffffffffffffffffffffffffffffff166fffffffffffffffffffffffffffffffff16613ec2565b601260003373ffffffffffffffffffffffffffffffffffffffff1673ffffffffffffffffffffffffffffffffffffffff1681526020019081526020016000206000016001601080549050611ec79190615f72565b9080600181540180825580915050600190039060005260206000209060029182820401919006601002909167ffffffffffffffff16909190916101000a8154816fffffffffffffffffffffffffffffffff02191690836fffffffffffffffffffffffffffffffff16021790555050505050565b611f42613cef565b73ffffffffffffffffffffffffffffffffffffffff16611f60612415565b73ffffffffffffffffffffffffffffffffffffffff1614611fb6576040517f08c379a0000000000000000000000000000000000000000000000000000000008152600401611fad90615771565b60405180910390fd5b611fc0600061433e565b565b611fca614494565b611fd2614494565b60005b6029816fffffffffffffffffffffffffffffffff16101561240a5760005b6029816fffffffffffffffffffffffffffffffff1610156123f6576000600f60008460148a6120229190615eba565b61202c9190615a86565b600f0b600f0b81526020019081526020016000206000836014896120509190615eba565b61205a9190615a86565b600f0b600f0b81526020019081526020016000206040518060600160405290816000820160009054906101000a900473ffffffffffffffffffffffffffffffffffffffff1673ffffffffffffffffffffffffffffffffffffffff1673ffffffffffffffffffffffffffffffffffffffff1681526020016001820160009054906101000a90046fffffffffffffffffffffffffffffffff166fffffffffffffffffffffffffffffffff166fffffffffffffffffffffffffffffffff1681526020016001820160109054906101000a90046fffffffffffffffffffffffffffffffff166fffffffffffffffffffffffffffffffff166fffffffffffffffffffffffffffffffff168152505090506040518060600160405280826000015173ffffffffffffffffffffffffffffffffffffffff16815260200182602001516fffffffffffffffffffffffffffffffff168152602001601083604001516fffffffffffffffffffffffffffffffff16815481106121d6576121d56162ab565b5b90600052602060002090600402016040518060a00160405290816000820180546121ff90616094565b80601f016020809104026020016040519081016040528092919081815260200182805461222b90616094565b80156122785780601f1061224d57610100808354040283529160200191612278565b820191906000526020600020905b81548152906001019060200180831161225b57829003601f168201915b505050505081526020016001820160009054906101000a900473ffffffffffffffffffffffffffffffffffffffff1673ffffffffffffffffffffffffffffffffffffffff1673ffffffffffffffffffffffffffffffffffffffff1681526020016001820160149054906101000a900467ffffffffffffffff1667ffffffffffffffff1667ffffffffffffffff1681526020016002820160009054906101000a900467ffffffffffffffff1667ffffffffffffffff1667ffffffffffffffff168152602001600382016040518060400160405290816000820160009054906101000a9004600f0b600f0b600f0b81526020016000820160109054906101000a9004600f0b600f0b600f0b815250508152505081525084846fffffffffffffffffffffffffffffffff16602981106123b1576123b06162ab565b5b6020020151836fffffffffffffffffffffffffffffffff16602981106123da576123d96162ab565b5b60200201819052505080806123ee906160c6565b915050611ff3565b508080612402906160c6565b915050611fd5565b508091505092915050565b6000600560009054906101000a900473ffffffffffffffffffffffffffffffffffffffff16905090565b60606004805461244e90616094565b80601f016020809104026020016040519081016040528092919081815260200182805461247a90616094565b80156124c75780601f1061249c576101008083540402835291602001916124c7565b820191906000526020600020905b8154815290600101906020018083116124aa57829003601f168201915b5050505050905090565b600080600160006124e0613cef565b73ffffffffffffffffffffffffffffffffffffffff1673ffffffffffffffffffffffffffffffffffffffff16815260200190815260200160002060008573ffffffffffffffffffffffffffffffffffffffff1673ffffffffffffffffffffffffffffffffffffffff1681526020019081526020016000205490508281101561259d576040517f08c379a000000000000000000000000000000000000000000000000000000000815260040161259490615871565b60405180910390fd5b6125b16125a8613cef565b85858403613cf7565b600191505092915050565b60008260030b1415806125d3575060008160030b14155b612612576040517f08c379a000000000000000000000000000000000000000000000000000000000815260040161260990615791565b60405180910390fd5b600073ffffffffffffffffffffffffffffffffffffffff16600f60008460030b600f0b815260200190815260200160002060008360030b600f0b815260200190815260200160002060000160009054906101000a900473ffffffffffffffffffffffffffffffffffffffff1673ffffffffffffffffffffffffffffffffffffffff16146126d4576040517f08c379a00000000000000000000000000000000000000000000000000000000081526004016126cb906157f1565b60405180910390fd5b600b546126e033611ac4565b1015612721576040517f08c379a0000000000000000000000000000000000000000000000000000000008152600401612718906157d1565b60405180910390fd5b61272a33612ff3565b6127373330600b54613ec2565b6064600b546127469190615bd7565b600b60008282546127579190615b50565b92505081905550600061276b600b54612f23565b905060405180606001604052803373ffffffffffffffffffffffffffffffffffffffff168152602001826fffffffffffffffffffffffffffffffff16815260200160006fffffffffffffffffffffffffffffffff16815250600f60008560030b600f0b815260200190815260200160002060008460030b600f0b815260200190815260200160002060008201518160000160006101000a81548173ffffffffffffffffffffffffffffffffffffffff021916908373ffffffffffffffffffffffffffffffffffffffff16021790555060208201518160010160006101000a8154816fffffffffffffffffffffffffffffffff02191690836fffffffffffffffffffffffffffffffff16021790555060408201518160010160106101000a8154816fffffffffffffffffffffffffffffffff02191690836fffffffffffffffffffffffffffffffff160217905550905050601260003373ffffffffffffffffffffffffffffffffffffffff1673ffffffffffffffffffffffffffffffffffffffff16815260200190815260200160002060010160405180604001604052808560030b600f0b81526020018460030b600f0b8152509080600181540180825580915050600190039060005260206000200160009091909190915060008201518160000160006101000a8154816fffffffffffffffffffffffffffffffff0219169083600f0b6fffffffffffffffffffffffffffffffff16021790555060208201518160000160106101000a8154816fffffffffffffffffffffffffffffffff0219169083600f0b6fffffffffffffffffffffffffffffffff1602179055505050505050565b60006129e26129db613cef565b8484613ec2565b6001905092915050565b81813373ffffffffffffffffffffffffffffffffffffffff16600f600084600f0b600f0b8152602001908152602001600020600083600f0b600f0b815260200190815260200160002060000160009054906101000a900473ffffffffffffffffffffffffffffffffffffffff1673ffffffffffffffffffffffffffffffffffffffff1614612aaf576040517f08c379a0000000000000000000000000000000000000000000000000000000008152600401612aa6906157b1565b60405180910390fd5b612b19600f600086600f0b600f0b8152602001908152602001600020600085600f0b600f0b815260200190815260200160002060010160109054906101000a90046fffffffffffffffffffffffffffffffff166fffffffffffffffffffffffffffffffff166141de565b612b3c604051806040016040528086600f0b815260200185600f0b815250614143565b84600f600086600f0b600f0b8152602001908152602001600020600085600f0b600f0b815260200190815260200160002060000160006101000a81548173ffffffffffffffffffffffffffffffffffffffff021916908373ffffffffffffffffffffffffffffffffffffffff16021790555060005b601260003373ffffffffffffffffffffffffffffffffffffffff1673ffffffffffffffffffffffffffffffffffffffff16815260200190815260200160002060010180549050811015612e135784600f0b601260003373ffffffffffffffffffffffffffffffffffffffff1673ffffffffffffffffffffffffffffffffffffffff1681526020019081526020016000206001018281548110612c5657612c556162ab565b5b9060005260206000200160000160009054906101000a9004600f0b600f0b148015612cf4575083600f0b601260003373ffffffffffffffffffffffffffffffffffffffff1673ffffffffffffffffffffffffffffffffffffffff1681526020019081526020016000206001018281548110612cd457612cd36162ab565b5b9060005260206000200160000160109054906101000a9004600f0b600f0b145b15612e005760405180604001604052806000600f0b81526020016000600f0b815250601260003373ffffffffffffffffffffffffffffffffffffffff1673ffffffffffffffffffffffffffffffffffffffff1681526020019081526020016000206001018281548110612d6a57612d696162ab565b5b9060005260206000200160008201518160000160006101000a8154816fffffffffffffffffffffffffffffffff0219169083600f0b6fffffffffffffffffffffffffffffffff16021790555060208201518160000160106101000a8154816fffffffffffffffffffffffffffffffff0219169083600f0b6fffffffffffffffffffffffffffffffff160217905550905050612e13565b8080612e0b906160ff565b915050612bb1565b50601260008673ffffffffffffffffffffffffffffffffffffffff1673ffffffffffffffffffffffffffffffffffffffff168152602001908152602001600020600101604051806040016040528086600f0b815260200185600f0b8152509080600181540180825580915050600190039060005260206000200160009091909190915060008201518160000160006101000a8154816fffffffffffffffffffffffffffffffff0219169083600f0b6fffffffffffffffffffffffffffffffff16021790555060208201518160000160106101000a8154816fffffffffffffffffffffffffffffffff0219169083600f0b6fffffffffffffffffffffffffffffffff16021790555050505050505050565b6000600143612f329190615f72565b4082604051602001612f45929190615524565b6040516020818303038152906040528051906020012060001c9050919050565b6060600e805480602002602001604051908101604052809291908181526020018280548015612fe957602002820191906000526020600020905b8160009054906101000a900473ffffffffffffffffffffffffffffffffffffffff1673ffffffffffffffffffffffffffffffffffffffff1681526020019060010190808311612f9f575b5050505050905090565b5b600c54601260008373ffffffffffffffffffffffffffffffffffffffff1673ffffffffffffffffffffffffffffffffffffffff1681526020019081526020016000206002018054905010156130ef57601260008273ffffffffffffffffffffffffffffffffffffffff1673ffffffffffffffffffffffffffffffffffffffff168152602001908152602001600020600201600090806001815401808255809150506001900390600052602060002090600291828204019190066010029091909190916101000a8154816fffffffffffffffffffffffffffffffff02191690836fffffffffffffffffffffffffffffffff160217905550612ff4565b50565b6000601260003373ffffffffffffffffffffffffffffffffffffffff1673ffffffffffffffffffffffffffffffffffffffff1681526020019081526020016000206002018054806020026020016040519081016040528092919081815260200182805480156131c457602002820191906000526020600020906000905b82829054906101000a90046fffffffffffffffffffffffffffffffff166fffffffffffffffffffffffffffffffff1681526020019060100190602082600f0104928301926001038202915080841161316f5790505b505050505090506000601260003373ffffffffffffffffffffffffffffffffffffffff1673ffffffffffffffffffffffffffffffffffffffff16815260200190815260200160002060030160009054906101000a900467ffffffffffffffff1667ffffffffffffffff16426132399190615f3e565b905062015180816fffffffffffffffffffffffffffffffff16111561325f576201518090505b60005b82518110156132d3578183828151811061327f5761327e6162ab565b5b602002602001018181516132939190615e70565b9150906fffffffffffffffffffffffffffffffff1690816fffffffffffffffffffffffffffffffff168152505080806132cb906160ff565b915050613262565b5060005b82518110156134175760008382815181106132f5576132f46162ab565b5b60200260200101516fffffffffffffffffffffffffffffffff16111561340457600e8181548110613329576133286162ab565b5b9060005260206000200160009054906101000a900473ffffffffffffffffffffffffffffffffffffffff1673ffffffffffffffffffffffffffffffffffffffff1663449a52f833858481518110613383576133826162ab565b5b60200260200101516040518363ffffffff1660e01b81526004016133a892919061556b565b602060405180830381600087803b1580156133c257600080fd5b505af11580156133d6573d6000803e3d6000fd5b505050506040513d601f19601f820116820180604052508101906133fa91906149ab565b61340357600080fd5b5b808061340f906160ff565b9150506132d7565b5042601260003373ffffffffffffffffffffffffffffffffffffffff1673ffffffffffffffffffffffffffffffffffffffff16815260200190815260200160002060030160006101000a81548167ffffffffffffffff021916908367ffffffffffffffff1602179055505050565b60606011805480602002602001604051908101604052809291908181526020016000905b8282101561360257838290600052602060002090600302016040518060600160405290816000820160009054906101000a90046fffffffffffffffffffffffffffffffff166fffffffffffffffffffffffffffffffff166fffffffffffffffffffffffffffffffff16815260200160018201805480602002602001604051908101604052809291908181526020016000905b828210156135d0578382906000526020600020016040518060400160405290816000820160009054906101000a90046fffffffffffffffffffffffffffffffff166fffffffffffffffffffffffffffffffff166fffffffffffffffffffffffffffffffff1681526020016000820160109054906101000a9004600f0b600f0b600f0b815250508152602001906001019061353b565b5050505081526020016002820160009054906101000a900460ff161515151581525050815260200190600101906134a9565b50505050905090565b6000600160008473ffffffffffffffffffffffffffffffffffffffff1673ffffffffffffffffffffffffffffffffffffffff16815260200190815260200160002060008373ffffffffffffffffffffffffffffffffffffffff1673ffffffffffffffffffffffffffffffffffffffff16815260200190815260200160002054905092915050565b61369a613cef565b73ffffffffffffffffffffffffffffffffffffffff166136b8612415565b73ffffffffffffffffffffffffffffffffffffffff161461370e576040517f08c379a000000000000000000000000000000000000000000000000000000000815260040161370590615771565b60405180910390fd5b80600e8381548110613723576137226162ab565b5b9060005260206000200160006101000a81548173ffffffffffffffffffffffffffffffffffffffff021916908373ffffffffffffffffffffffffffffffffffffffff1602179055505050565b613777613cef565b73ffffffffffffffffffffffffffffffffffffffff16613795612415565b73ffffffffffffffffffffffffffffffffffffffff16146137eb576040517f08c379a00000000000000000000000000000000000000000000000000000000081526004016137e290615771565b60405180910390fd5b60118054806137fd576137fc61627c565b5b6001900381819060005260206000209060030201600080820160006101000a8154906fffffffffffffffffffffffffffffffff021916905560018201600061384591906144c2565b6002820160006101000a81549060ff021916905550509055565b613867613cef565b73ffffffffffffffffffffffffffffffffffffffff16613885612415565b73ffffffffffffffffffffffffffffffffffffffff16146138db576040517f08c379a00000000000000000000000000000000000000000000000000000000081526004016138d290615771565b60405180910390fd5b600073ffffffffffffffffffffffffffffffffffffffff168173ffffffffffffffffffffffffffffffffffffffff16141561394b576040517f08c379a0000000000000000000000000000000000000000000000000000000008152600401613942906156b1565b60405180910390fd5b6139548161433e565b50565b600080151560118367ffffffffffffffff168154811061397a576139796162ab565b5b906000526020600020906003020160020160009054906101000a900460ff16151514156139aa57606490506139fb565b60336023836139b991906161be565b600a6139c59190615c5b565b846fffffffffffffffffffffffffffffffff166139e29190615bd7565b6139ec919061618d565b60326139f89190615b50565b90505b92915050565b60608060606000601260008673ffffffffffffffffffffffffffffffffffffffff1673ffffffffffffffffffffffffffffffffffffffff168152602001908152602001600020600001601260008773ffffffffffffffffffffffffffffffffffffffff1673ffffffffffffffffffffffffffffffffffffffff168152602001908152602001600020600101601260008873ffffffffffffffffffffffffffffffffffffffff1673ffffffffffffffffffffffffffffffffffffffff168152602001908152602001600020600201601260008973ffffffffffffffffffffffffffffffffffffffff1673ffffffffffffffffffffffffffffffffffffffff16815260200190815260200160002060030160009054906101000a900467ffffffffffffffff1683805480602002602001604051908101604052809291908181526020018280548015613bb457602002820191906000526020600020906000905b82829054906101000a90046fffffffffffffffffffffffffffffffff166fffffffffffffffffffffffffffffffff1681526020019060100190602082600f01049283019260010382029150808411613b5f5790505b5050505050935082805480602002602001604051908101604052809291908181526020016000905b82821015613c44578382906000526020600020016040518060400160405290816000820160009054906101000a9004600f0b600f0b600f0b81526020016000820160109054906101000a9004600f0b600f0b600f0b8152505081526020019060010190613bdc565b50505050925081805480602002602001604051908101604052809291908181526020018280548015613cd957602002820191906000526020600020906000905b82829054906101000a90046fffffffffffffffffffffffffffffffff166fffffffffffffffffffffffffffffffff1681526020019060100190602082600f01049283019260010382029150808411613c845790505b5050505050915093509350935093509193509193565b600033905090565b600073ffffffffffffffffffffffffffffffffffffffff168373ffffffffffffffffffffffffffffffffffffffff161415613d67576040517f08c379a0000000000000000000000000000000000000000000000000000000008152600401613d5e90615831565b60405180910390fd5b600073ffffffffffffffffffffffffffffffffffffffff168273ffffffffffffffffffffffffffffffffffffffff161415613dd7576040517f08c379a0000000000000000000000000000000000000000000000000000000008152600401613dce906156d1565b60405180910390fd5b80600160008573ffffffffffffffffffffffffffffffffffffffff1673ffffffffffffffffffffffffffffffffffffffff16815260200190815260200160002060008473ffffffffffffffffffffffffffffffffffffffff1673ffffffffffffffffffffffffffffffffffffffff168152602001908152602001600020819055508173ffffffffffffffffffffffffffffffffffffffff168373ffffffffffffffffffffffffffffffffffffffff167f8c5be1e5ebec7d5bd14f71427d1e84f3dd0314c0f7b2291e5b200ac8c7c3b92583604051613eb591906158ac565b60405180910390a3505050565b600073ffffffffffffffffffffffffffffffffffffffff168373ffffffffffffffffffffffffffffffffffffffff161415613f32576040517f08c379a0000000000000000000000000000000000000000000000000000000008152600401613f2990615811565b60405180910390fd5b600073ffffffffffffffffffffffffffffffffffffffff168273ffffffffffffffffffffffffffffffffffffffff161415613fa2576040517f08c379a0000000000000000000000000000000000000000000000000000000008152600401613f9990615691565b60405180910390fd5b613fad838383614404565b60008060008573ffffffffffffffffffffffffffffffffffffffff1673ffffffffffffffffffffffffffffffffffffffff16815260200190815260200160002054905081811015614033576040517f08c379a000000000000000000000000000000000000000000000000000000000815260040161402a906156f1565b60405180910390fd5b8181036000808673ffffffffffffffffffffffffffffffffffffffff1673ffffffffffffffffffffffffffffffffffffffff16815260200190815260200160002081905550816000808573ffffffffffffffffffffffffffffffffffffffff1673ffffffffffffffffffffffffffffffffffffffff16815260200190815260200160002060008282546140c69190615b50565b925050819055508273ffffffffffffffffffffffffffffffffffffffff168473ffffffffffffffffffffffffffffffffffffffff167fddf252ad1be2c89b69c2b068fc378daa952ba7f163c4a11628f55a4df523b3ef8460405161412a91906158ac565b60405180910390a361413d848484614409565b50505050565b60008160000151600f0b141580614162575060008160200151600f0b14155b156141db576000600f60008360000151600f0b600f0b815260200190815260200160002060008360200151600f0b600f0b815260200190815260200160002060010160106101000a8154816fffffffffffffffffffffffffffffffff02191690836fffffffffffffffffffffffffffffffff1602179055505b50565b6000811415801561426c5750600060108281548110614200576141ff6162ab565b5b906000526020600020906004020160030160000160009054906101000a9004600f0b600f0b14158061426b5750600060108281548110614243576142426162ab565b5b906000526020600020906004020160030160000160109054906101000a9004600f0b600f0b14155b5b1561433b5760405180604001604052806000600f0b81526020016000600f0b815250601082815481106142a2576142a16162ab565b5b906000526020600020906004020160030160008201518160000160006101000a8154816fffffffffffffffffffffffffffffffff0219169083600f0b6fffffffffffffffffffffffffffffffff16021790555060208201518160000160106101000a8154816fffffffffffffffffffffffffffffffff0219169083600f0b6fffffffffffffffffffffffffffffffff1602179055509050505b50565b6000600560009054906101000a900473ffffffffffffffffffffffffffffffffffffffff16905081600560006101000a81548173ffffffffffffffffffffffffffffffffffffffff021916908373ffffffffffffffffffffffffffffffffffffffff1602179055508173ffffffffffffffffffffffffffffffffffffffff168173ffffffffffffffffffffffffffffffffffffffff167f8be0079c531659141344cd1fd0a4f28419497f9722a3daafe3b4186f6b6457e060405160405180910390a35050565b505050565b505050565b82805461441a90616094565b90600052602060002090601f01602090048101928261443c5760008555614483565b82601f1061445557805160ff1916838001178555614483565b82800160010185558215614483579182015b82811115614482578251825591602001919060010190614467565b5b50905061449091906144e3565b5090565b6040518061052001604052806029905b6144ac614500565b8152602001906001900390816144a45790505090565b50805460008255906000526020600020908101906144e0919061452e565b50565b5b808211156144fc5760008160009055506001016144e4565b5090565b6040518061052001604052806029905b61451861458b565b8152602001906001900390816145105790505090565b5b8082111561458757600080820160006101000a8154906fffffffffffffffffffffffffffffffff02191690556000820160106101000a8154906fffffffffffffffffffffffffffffffff02191690555060010161452f565b5090565b6040518060600160405280600073ffffffffffffffffffffffffffffffffffffffff16815260200160006fffffffffffffffffffffffffffffffff1681526020016145d46145da565b81525090565b6040518060a0016040528060608152602001600073ffffffffffffffffffffffffffffffffffffffff168152602001600067ffffffffffffffff168152602001600067ffffffffffffffff168152602001614633614639565b81525090565b60405180604001604052806000600f0b81526020016000600f0b81525090565b6000813590506146688161671d565b92915050565b60008083601f840112614684576146836162df565b5b8235905067ffffffffffffffff8111156146a1576146a06162da565b5b6020830191508360208202830111156146bd576146bc6162e4565b5b9250929050565b60008083601f8401126146da576146d96162df565b5b8235905067ffffffffffffffff8111156146f7576146f66162da565b5b602083019150836020820283011115614713576147126162e4565b5b9250929050565b60008135905061472981616734565b92915050565b60008151905061473e81616734565b92915050565b6000813590506147538161674b565b92915050565b60008135905061476881616762565b92915050565b60008083601f840112614784576147836162df565b5b8235905067ffffffffffffffff8111156147a1576147a06162da565b5b6020830191508360018202830111156147bd576147bc6162e4565b5b9250929050565b6000813590506147d381616779565b92915050565b6000813590506147e881616790565b92915050565b6000813590506147fd816167a7565b92915050565b600081359050614812816167be565b92915050565b60006020828403121561482e5761482d6162ee565b5b600061483c84828501614659565b91505092915050565b6000806040838503121561485c5761485b6162ee565b5b600061486a85828601614659565b925050602061487b85828601614659565b9150509250929050565b60008060006060848603121561489e5761489d6162ee565b5b60006148ac86828701614659565b93505060206148bd86828701614659565b92505060406148ce868287016147d9565b9150509250925092565b6000806000606084860312156148f1576148f06162ee565b5b60006148ff86828701614659565b935050602061491086828701614744565b925050604061492186828701614744565b9150509250925092565b60008060408385031215614942576149416162ee565b5b600061495085828601614659565b9250506020614961858286016147d9565b9150509250929050565b60008060408385031215614982576149816162ee565b5b600061499085828601614659565b92505060206149a1858286016147ee565b9150509250929050565b6000602082840312156149c1576149c06162ee565b5b60006149cf8482850161472f565b91505092915050565b6000602082840312156149ee576149ed6162ee565b5b60006149fc84828501614744565b91505092915050565b60008060408385031215614a1c57614a1b6162ee565b5b6000614a2a85828601614744565b9250506020614a3b85828601614744565b9150509250929050565b60008060408385031215614a5c57614a5b6162ee565b5b6000614a6a85828601614759565b9250506020614a7b85828601614759565b9150509250929050565b600080600060408486031215614a9e57614a9d6162ee565b5b600084013567ffffffffffffffff811115614abc57614abb6162e9565b5b614ac88682870161476e565b93509350506020614adb86828701614803565b9150509250925092565b600060208284031215614afb57614afa6162ee565b5b6000614b09848285016147c4565b91505092915050565b60008060008060008060808789031215614b2f57614b2e6162ee565b5b6000614b3d89828a016147c4565b9650506020614b4e89828a0161471a565b955050604087013567ffffffffffffffff811115614b6f57614b6e6162e9565b5b614b7b89828a016146c4565b9450945050606087013567ffffffffffffffff811115614b9e57614b9d6162e9565b5b614baa89828a0161466e565b92509250509295509295509295565b60008060408385031215614bd057614bcf6162ee565b5b6000614bde858286016147c4565b9250506020614bef858286016147ee565b9150509250929050565b600060208284031215614c0f57614c0e6162ee565b5b6000614c1d848285016147d9565b91505092915050565b60008060408385031215614c3d57614c3c6162ee565b5b6000614c4b858286016147d9565b9250506020614c5c85828601614659565b9150509250929050565b600080600060608486031215614c7f57614c7e6162ee565b5b6000614c8d868287016147ee565b9350506020614c9e86828701614744565b9250506040614caf86828701614744565b9150509250925092565b6000614cc58383614d55565b60208301905092915050565b6000614cdd8383614f19565b905092915050565b6000614cf18383615330565b60408301905092915050565b6000614d0983836153d5565b905092915050565b6000614d1d8383615425565b905092915050565b6000614d318383615475565b60408301905092915050565b6000614d4983836154a4565b60208301905092915050565b614d5e81615fa6565b82525050565b614d6d81615fa6565b82525050565b6000614d7e82615946565b614d8881856159f9565b9350614d93836158e2565b8060005b83811015614dc4578151614dab8882614cb9565b9750614db68361599e565b925050600181019050614d97565b5085935050505092915050565b6000614ddc82615951565b614de68185615a0a565b935083602082028501614df8856158f2565b8060005b85811015614e345784840389528151614e158582614cd1565b9450614e20836159ab565b925060208a01995050600181019050614dfc565b50829750879550505050505092915050565b6000614e518261595c565b614e5b8185615a15565b9350614e66836158fc565b8060005b83811015614e97578151614e7e8882614ce5565b9750614e89836159b8565b925050600181019050614e6a565b5085935050505092915050565b6000614eaf82615967565b614eb98185615a26565b935083602082028501614ecb8561590c565b8060005b85811015614f075784840389528151614ee88582614cfd565b9450614ef3836159c5565b925060208a01995050600181019050614ecf565b50829750879550505050505092915050565b6000614f2482615972565b614f2e8185615a37565b935083602082028501614f408561591c565b8060005b85811015614f7c5784840389528151614f5d8582614d11565b9450614f68836159d2565b925060208a01995050600181019050614f44565b50829750879550505050505092915050565b6000614f998261597d565b614fa38185615a42565b9350614fae83615926565b8060005b83811015614fdf578151614fc68882614d25565b9750614fd1836159df565b925050600181019050614fb2565b5085935050505092915050565b6000614ff782615988565b6150018185615a53565b935061500c83615936565b8060005b8381101561503d5781516150248882614d3d565b975061502f836159ec565b925050600181019050615010565b5085935050505092915050565b61505381615fb8565b82525050565b61506281615fb8565b82525050565b61507961507482615fc4565b616148565b82525050565b61508881615fce565b82525050565b600061509982615993565b6150a38185615a64565b93506150b3818560208601616061565b6150bc816162f3565b840191505092915050565b60006150d282615993565b6150dc8185615a75565b93506150ec818560208601616061565b6150f5816162f3565b840191505092915050565b600061510d602383615a75565b915061511882616311565b604082019050919050565b6000615130602683615a75565b915061513b82616360565b604082019050919050565b6000615153602283615a75565b915061515e826163af565b604082019050919050565b6000615176602683615a75565b9150615181826163fe565b604082019050919050565b6000615199602d83615a75565b91506151a48261644d565b604082019050919050565b60006151bc601f83615a75565b91506151c78261649c565b602082019050919050565b60006151df602883615a75565b91506151ea826164c5565b604082019050919050565b6000615202602083615a75565b915061520d82616514565b602082019050919050565b6000615225601183615a75565b91506152308261653d565b602082019050919050565b6000615248601c83615a75565b915061525382616566565b602082019050919050565b600061526b602b83615a75565b91506152768261658f565b604082019050919050565b600061528e601583615a75565b9150615299826165de565b602082019050919050565b60006152b1602583615a75565b91506152bc82616607565b604082019050919050565b60006152d4602483615a75565b91506152df82616656565b604082019050919050565b60006152f7601683615a75565b9150615302826166a5565b602082019050919050565b600061531a602583615a75565b9150615325826166ce565b604082019050919050565b604082016000820151615346600085018261507f565b506020820151615359602085018261507f565b50505050565b600060c083016000830151848203600086015261537c828261508e565b91505060208301516153916020860182614d55565b5060408301516153a460408601826154f7565b5060608301516153b760608601826154f7565b5060808301516153ca6080860182615330565b508091505092915050565b60006060830160008301516153ed60008601826154a4565b50602083015184820360208601526154058282614f8e565b915050604083015161541a604086018261504a565b508091505092915050565b600060608301600083015161543d6000860182614d55565b50602083015161545060208601826154a4565b5060408301518482036040860152615468828261535f565b9150508091505092915050565b60408201600082015161548b60008501826154a4565b50602082015161549e602085018261507f565b50505050565b6154ad81615fe8565b82525050565b6154bc81615fe8565b82525050565b6154cb8161604f565b82525050565b6154da81616024565b82525050565b6154f16154ec82616024565b616152565b82525050565b6155008161602e565b82525050565b61550f8161602e565b82525050565b61551e81616042565b82525050565b60006155308285615068565b60208201915061554082846154e0565b6020820191508190509392505050565b60006020820190506155656000830184614d64565b92915050565b60006040820190506155806000830185614d64565b61558d60208301846154c2565b9392505050565b600060208201905081810360008301526155ae8184614d73565b905092915050565b600060208201905081810360008301526155d08184614dd1565b905092915050565b600060208201905081810360008301526155f28184614ea4565b905092915050565b600060808201905081810360008301526156148187614fec565b905081810360208301526156288186614e46565b9050818103604083015261563c8185614fec565b905061564b6060830184615506565b95945050505050565b60006020820190506156696000830184615059565b92915050565b6000602082019050818103600083015261568981846150c7565b905092915050565b600060208201905081810360008301526156aa81615100565b9050919050565b600060208201905081810360008301526156ca81615123565b9050919050565b600060208201905081810360008301526156ea81615146565b9050919050565b6000602082019050818103600083015261570a81615169565b9050919050565b6000602082019050818103600083015261572a8161518c565b9050919050565b6000602082019050818103600083015261574a816151af565b9050919050565b6000602082019050818103600083015261576a816151d2565b9050919050565b6000602082019050818103600083015261578a816151f5565b9050919050565b600060208201905081810360008301526157aa81615218565b9050919050565b600060208201905081810360008301526157ca8161523b565b9050919050565b600060208201905081810360008301526157ea8161525e565b9050919050565b6000602082019050818103600083015261580a81615281565b9050919050565b6000602082019050818103600083015261582a816152a4565b9050919050565b6000602082019050818103600083015261584a816152c7565b9050919050565b6000602082019050818103600083015261586a816152ea565b9050919050565b6000602082019050818103600083015261588a8161530d565b9050919050565b60006020820190506158a660008301846154b3565b92915050565b60006020820190506158c160008301846154d1565b92915050565b60006020820190506158dc6000830184615515565b92915050565b6000819050602082019050919050565b6000819050919050565b6000819050602082019050919050565b6000819050602082019050919050565b6000819050919050565b6000819050602082019050919050565b6000819050602082019050919050565b600081519050919050565b600060299050919050565b600081519050919050565b600081519050919050565b600060299050919050565b600081519050919050565b600081519050919050565b600081519050919050565b6000602082019050919050565b6000602082019050919050565b6000602082019050919050565b6000602082019050919050565b6000602082019050919050565b6000602082019050919050565b6000602082019050919050565b600082825260208201905092915050565b600081905092915050565b600082825260208201905092915050565b600082825260208201905092915050565b600081905092915050565b600082825260208201905092915050565b600082825260208201905092915050565b600082825260208201905092915050565b600082825260208201905092915050565b6000615a9182615fce565b9150615a9c83615fce565b9250816f7fffffffffffffffffffffffffffffff03831360008312151615615ac757615ac66161ef565b5b817fffffffffffffffffffffffffffffffff80000000000000000000000000000000038312600083121615615aff57615afe6161ef565b5b828201905092915050565b6000615b1582615fe8565b9150615b2083615fe8565b9250826fffffffffffffffffffffffffffffffff03821115615b4557615b446161ef565b5b828201905092915050565b6000615b5b82616024565b9150615b6683616024565b9250827fffffffffffffffffffffffffffffffffffffffffffffffffffffffffffffffff03821115615b9b57615b9a6161ef565b5b828201905092915050565b6000615bb182615fe8565b9150615bbc83615fe8565b925082615bcc57615bcb61621e565b5b828204905092915050565b6000615be282616024565b9150615bed83616024565b925082615bfd57615bfc61621e565b5b828204905092915050565b6000808291508390505b6001851115615c5257808604811115615c2e57615c2d6161ef565b5b6001851615615c3d5780820291505b8081029050615c4b85616304565b9450615c12565b94509492505050565b6000615c6682616024565b9150615c718361602e565b9250615c9e7fffffffffffffffffffffffffffffffffffffffffffffffffffffffffffffffff8484615ca6565b905092915050565b600082615cb65760019050615d72565b81615cc45760009050615d72565b8160018114615cda5760028114615ce457615d13565b6001915050615d72565b60ff841115615cf657615cf56161ef565b5b8360020a915084821115615d0d57615d0c6161ef565b5b50615d72565b5060208310610133831016604e8410600b8410161715615d485782820a905083811115615d4357615d426161ef565b5b615d72565b615d558484846001615c08565b92509050818404811115615d6c57615d6b6161ef565b5b81810290505b9392505050565b6000615d8482615fce565b9150615d8f83615fce565b9250826f7fffffffffffffffffffffffffffffff0482116000841360008413161615615dbe57615dbd6161ef565b5b817fffffffffffffffffffffffffffffffff800000000000000000000000000000000583126000841260008413161615615dfb57615dfa6161ef565b5b827fffffffffffffffffffffffffffffffff800000000000000000000000000000000582126000841360008412161615615e3857615e376161ef565b5b826f7fffffffffffffffffffffffffffffff0582126000841260008412161615615e6557615e646161ef565b5b828202905092915050565b6000615e7b82615fe8565b9150615e8683615fe8565b9250816fffffffffffffffffffffffffffffffff0483118215151615615eaf57615eae6161ef565b5b828202905092915050565b6000615ec582615fce565b9150615ed083615fce565b9250827fffffffffffffffffffffffffffffffff8000000000000000000000000000000001821260008412151615615f0b57615f0a6161ef565b5b826f7fffffffffffffffffffffffffffffff018213600084121615615f3357615f326161ef565b5b828203905092915050565b6000615f4982615fe8565b9150615f5483615fe8565b925082821015615f6757615f666161ef565b5b828203905092915050565b6000615f7d82616024565b9150615f8883616024565b925082821015615f9b57615f9a6161ef565b5b828203905092915050565b6000615fb182616004565b9050919050565b60008115159050919050565b6000819050919050565b600081600f0b9050919050565b60008160030b9050919050565b60006fffffffffffffffffffffffffffffffff82169050919050565b600073ffffffffffffffffffffffffffffffffffffffff82169050919050565b6000819050919050565b600067ffffffffffffffff82169050919050565b600060ff82169050919050565b600061605a82615fe8565b9050919050565b60005b8381101561607f578082015181840152602081019050616064565b8381111561608e576000848401525b50505050565b600060028204905060018216806160ac57607f821691505b602082108114156160c0576160bf61624d565b5b50919050565b60006160d182615fe8565b91506fffffffffffffffffffffffffffffffff8214156160f4576160f36161ef565b5b600182019050919050565b600061610a82616024565b91507fffffffffffffffffffffffffffffffffffffffffffffffffffffffffffffffff82141561613d5761613c6161ef565b5b600182019050919050565b6000819050919050565b6000819050919050565b600061616782615fe8565b915061617283615fe8565b9250826161825761618161621e565b5b828206905092915050565b600061619882616024565b91506161a383616024565b9250826161b3576161b261621e565b5b828206905092915050565b60006161c98261602e565b91506161d48361602e565b9250826161e4576161e361621e565b5b828206905092915050565b7f4e487b7100000000000000000000000000000000000000000000000000000000600052601160045260246000fd5b7f4e487b7100000000000000000000000000000000000000000000000000000000600052601260045260246000fd5b7f4e487b7100000000000000000000000000000000000000000000000000000000600052602260045260246000fd5b7f4e487b7100000000000000000000000000000000000000000000000000000000600052603160045260246000fd5b7f4e487b7100000000000000000000000000000000000000000000000000000000600052603260045260246000fd5b600080fd5b600080fd5b600080fd5b600080fd5b600080fd5b6000601f19601f8301169050919050565b60008160011c9050919050565b7f45524332303a207472616e7366657220746f20746865207a65726f206164647260008201527f6573730000000000000000000000000000000000000000000000000000000000602082015250565b7f4f776e61626c653a206e6577206f776e657220697320746865207a65726f206160008201527f6464726573730000000000000000000000000000000000000000000000000000602082015250565b7f45524332303a20617070726f766520746f20746865207a65726f20616464726560008201527f7373000000000000000000000000000000000000000000000000000000000000602082015250565b7f45524332303a207472616e7366657220616d6f756e742065786365656473206260008201527f616c616e63650000000000000000000000000000000000000000000000000000602082015250565b7f4e6f7420656e6f756768207265736f757263652073747265616d20746f20706c60008201527f61636520666163746f7279202100000000000000000000000000000000000000602082015250565b7f466163746f727920646f65736e27742062656c6f6e6720746f20796f75202100600082015250565b7f45524332303a207472616e7366657220616d6f756e742065786365656473206160008201527f6c6c6f77616e6365000000000000000000000000000000000000000000000000602082015250565b7f4f776e61626c653a2063616c6c6572206973206e6f7420746865206f776e6572600082015250565b7f43616e27742062757920737061776e2021000000000000000000000000000000600082015250565b7f4c616e6420646f65736e27742062656c6f6e6720746f20796f75202100000000600082015250565b7f4e6f7420656e6f756768204d4c4f20696e20796f75722077616c6c657420746f60008201527f20627579206c616e642021000000000000000000000000000000000000000000602082015250565b7f4c616e6420616c72656164792065786973747320210000000000000000000000600082015250565b7f45524332303a207472616e736665722066726f6d20746865207a65726f20616460008201527f6472657373000000000000000000000000000000000000000000000000000000602082015250565b7f45524332303a20617070726f76652066726f6d20746865207a65726f2061646460008201527f7265737300000000000000000000000000000000000000000000000000000000602082015250565b7f4172726179206c656e677468206d69736d617463682100000000000000000000600082015250565b7f45524332303a2064656372656173656420616c6c6f77616e63652062656c6f7760008201527f207a65726f000000000000000000000000000000000000000000000000000000602082015250565b61672681615fa6565b811461673157600080fd5b50565b61673d81615fb8565b811461674857600080fd5b50565b61675481615fce565b811461675f57600080fd5b50565b61676b81615fdb565b811461677657600080fd5b50565b61678281615fe8565b811461678d57600080fd5b50565b61679981616024565b81146167a457600080fd5b50565b6167b08161602e565b81146167bb57600080fd5b50565b6167c781616042565b81146167d257600080fd5b5056fea26469706673582212201710460a2ba1fa8a6b0b34ea23c4d4cc0060a7cdaf689f0488d647a6d7bdebe864736f6c63430008060033",
  "immutableReferences": {},
  "source": "// SPDX-License-Identifier: MIT\r\npragma solidity ^0.8.2;\r\n\r\nimport \"@openzeppelin/contracts/token/ERC20/ERC20.sol\";\r\nimport \"@openzeppelin/contracts/access/Ownable.sol\";\r\n\r\ninterface ERC20I {\r\n    function mintTo(address to, uint256 amount) external returns (bool);\r\n}\r\n\r\ncontract Marsmello is ERC20, Ownable {\r\n    constructor() ERC20(m_name, m_symbol) {\r\n        _mint(msg.sender, m_supply * 10**decimals());\r\n        deploy_time = block.timestamp;\r\n        factories.push(Factory(\"Void\", address(0), 0, 0, CoOrdinates(0, 0)));\r\n    }\r\n\r\n    string m_name = \"MarsMello\";\r\n    string m_symbol = \"MLO\";\r\n    uint256 m_supply = 10**9;\r\n    uint256 deploy_time;\r\n    uint256 randomness = 12345678901234567890;\r\n    uint256 land_price = 1000 * 10**decimals();\r\n    uint256 resources_count = 5;\r\n\r\n    uint256 factory_count = 0;\r\n    struct Land {\r\n        address owner;\r\n        uint128 seed;\r\n        uint128 ontop;\r\n    }\r\n    struct Factory {\r\n        string name;\r\n        address owner;\r\n        uint64 ftype;\r\n        uint64 efficiency;\r\n        CoOrdinates placedon;\r\n    }\r\n    struct User {\r\n        uint128[] factories;\r\n        CoOrdinates[] lands;\r\n        uint128[] flows;\r\n        uint64 lastclaimed;\r\n    }\r\n    struct CoOrdinates {\r\n        int128 x;\r\n        int128 y;\r\n    }\r\n    struct Relay {\r\n        address owner;\r\n        uint128 seed;\r\n        Factory ontop;\r\n    }\r\n    struct Resource {\r\n        uint128 id;\r\n        int128 rate;\r\n    }\r\n    struct Factory_type {\r\n        uint128 price;\r\n        Resource[] resources;\r\n        bool land_dependent;\r\n    }\r\n    address[] private tokens;\r\n\r\n    mapping(int128 => mapping(int128 => Land)) private lands;\r\n    Factory[] private factories;\r\n    Factory_type[] private factory_types;\r\n    mapping(address => User) private users;\r\n\r\n    modifier landOwner(int128 x, int128 y) {\r\n        require(\r\n            lands[x][y].owner == msg.sender,\r\n            \"Land doesn't belong to you !\"\r\n        );\r\n        _;\r\n    }\r\n    modifier factoryOwner(uint256 id) {\r\n        require(\r\n            factories[id].owner == msg.sender,\r\n            \"Factory doesn't belong to you !\"\r\n        );\r\n        _;\r\n    }\r\n\r\n    function chechUser(address a) public {\r\n        while (users[a].flows.length < resources_count) {\r\n            users[a].flows.push(0);\r\n        }\r\n    }\r\n\r\n    function getUserData(address user)\r\n        public\r\n        view\r\n        returns (\r\n            uint128[] memory,\r\n            CoOrdinates[] memory,\r\n            uint128[] memory,\r\n            uint64\r\n        )\r\n    {\r\n        return (\r\n            users[user].factories,\r\n            users[user].lands,\r\n            users[user].flows,\r\n            users[user].lastclaimed\r\n        );\r\n    }\r\n\r\n    function getLandPrice() public view returns (uint256) {\r\n        return (land_price);\r\n    }\r\n\r\n    function getRandomNumber(uint256 rand) public view returns (uint128) {\r\n        return\r\n            uint128(\r\n                uint256(\r\n                    keccak256(\r\n                        abi.encodePacked(blockhash(block.number - 1), rand)\r\n                    )\r\n                )\r\n            );\r\n    }\r\n\r\n    function addFactoryType(\r\n        uint128 price,\r\n        bool land_dependent,\r\n        uint128[] calldata r1,\r\n        int128[] calldata r2\r\n    ) public onlyOwner returns (uint256) {\r\n        require(r1.length == r2.length, \"Array length mismatch!\");\r\n        factory_types.push();\r\n        uint256 id = factory_types.length - 1;\r\n        factory_types[id].price = price;\r\n        factory_types[id].land_dependent = land_dependent;\r\n        for (uint256 i = 0; i < r1.length; i++) {\r\n            factory_types[id].resources.push(Resource(r1[i], r2[i]));\r\n        }\r\n        return id;\r\n    }\r\n\r\n    function deletefactoryType() public onlyOwner {\r\n        factory_types.pop();\r\n    }\r\n\r\n    function getFactoryType() public view returns (Factory_type[] memory) {\r\n        return factory_types;\r\n    }\r\n\r\n    function addResource(address token_address)\r\n        public\r\n        onlyOwner\r\n        returns (uint256)\r\n    {\r\n        tokens.push(token_address);\r\n        return (tokens.length - 1);\r\n    }\r\n\r\n    function editResource(uint256 id, address token_address) public onlyOwner {\r\n        tokens[id] = token_address;\r\n    }\r\n\r\n    function deleteResource() public onlyOwner {\r\n        tokens.pop();\r\n    }\r\n\r\n    function getResource() public view returns (address[] memory) {\r\n        return tokens;\r\n    }\r\n\r\n    function mintFactory(string calldata name, uint8 ftype) public {\r\n        require(\r\n            balanceOf(msg.sender) >= factory_types[ftype].price,\r\n            \"Not enough MLO in your wallet to buy land !\"\r\n        );\r\n        chechUser(msg.sender);\r\n        uint128 seed = getRandomNumber(factories.length);\r\n        factories.push(\r\n            Factory(\r\n                name,\r\n                msg.sender,\r\n                ftype,\r\n                uint64(50 + (seed % 51)),\r\n                CoOrdinates(0, 0)\r\n            )\r\n        );\r\n        _transfer(msg.sender, address(this), factory_types[ftype].price);\r\n        users[msg.sender].factories.push(uint64(factories.length - 1));\r\n    }\r\n\r\n    function getLandRate(uint128 seed, uint64 ftype)\r\n        public\r\n        view\r\n        returns (uint128)\r\n    {\r\n        if (factory_types[ftype].land_dependent == false) return 100;\r\n        return uint128(50 + ((seed / (10**(ftype % 35))) % 51));\r\n    }\r\n\r\n    function mintLand(int32 x, int32 y) public {\r\n        require(x != 0 || y != 0, \"Can't buy spawn !\");\r\n        require(lands[x][y].owner == address(0), \"Land already exists !\");\r\n        require(\r\n            balanceOf(msg.sender) >= land_price,\r\n            \"Not enough MLO in your wallet to buy land !\"\r\n        );\r\n        chechUser(msg.sender);\r\n        _transfer(msg.sender, address(this), land_price);\r\n        land_price += land_price / 100;\r\n        uint128 seed = getRandomNumber(land_price);\r\n        lands[x][y] = Land(msg.sender, seed, 0);\r\n        users[msg.sender].lands.push(CoOrdinates(x, y));\r\n    }\r\n\r\n    function _clearLand(CoOrdinates memory c) private {\r\n        if (c.x != 0 || c.y != 0) lands[c.x][c.y].ontop = 0;\r\n    }\r\n\r\n    function _clearFactory(uint256 id) private {\r\n        if (\r\n            id != 0 &&\r\n            (factories[id].placedon.x != 0 || factories[id].placedon.y != 0)\r\n        ) {\r\n            factories[id].placedon = CoOrdinates(0, 0);\r\n        }\r\n    }\r\n\r\n    function placeFactory(\r\n        uint64 factory_id,\r\n        int128 x,\r\n        int128 y\r\n    ) public landOwner(x, y) factoryOwner(factory_id) {\r\n        claimAll();\r\n        _clearFactory(lands[x][y].ontop);\r\n        _clearLand(factories[factory_id].placedon);\r\n\r\n        lands[x][y].ontop = factory_id;\r\n        Factory storage f = factories[factory_id];\r\n        f.placedon = CoOrdinates(x, y);\r\n        for (uint256 i = 0; i < factory_types[f.ftype].resources.length; i++) {\r\n            Resource memory r = factory_types[f.ftype].resources[i];\r\n            if (r.rate < 0) {\r\n                require(\r\n                    users[msg.sender].flows[r.id] >\r\n                        uint128(-1 * r.rate) * uint128(f.efficiency),\r\n                    \"Not enough resource stream to place factory !\"\r\n                );\r\n                users[msg.sender].flows[r.id] -=\r\n                    uint128(-1 * r.rate) *\r\n                    uint128(f.efficiency);\r\n            } else {\r\n                users[msg.sender].flows[r.id] +=\r\n                    (uint128(r.rate) *\r\n                        uint128(f.efficiency) *\r\n                        getLandRate(lands[x][y].seed, f.ftype)) /\r\n                    100;\r\n            }\r\n        }\r\n    }\r\n\r\n    function transferLand(\r\n        address to,\r\n        int128 x,\r\n        int128 y\r\n    ) public landOwner(x, y) {\r\n        _clearFactory(lands[x][y].ontop);\r\n        _clearLand(CoOrdinates(x, y));\r\n        lands[x][y].owner = to;\r\n        for (uint256 i = 0; i < users[msg.sender].lands.length; i++) {\r\n            if (\r\n                users[msg.sender].lands[i].x == x &&\r\n                users[msg.sender].lands[i].y == y\r\n            ) {\r\n                users[msg.sender].lands[i] = CoOrdinates(0, 0);\r\n                break;\r\n            }\r\n        }\r\n        users[to].lands.push(CoOrdinates(x, y));\r\n    }\r\n\r\n    function transferFactory(address to, uint64 factory_id)\r\n        public\r\n        factoryOwner(factory_id)\r\n    {\r\n        Factory storage f = factories[factory_id];\r\n        _clearLand(f.placedon);\r\n        _clearFactory(factory_id);\r\n        f.owner = to;\r\n        for (uint256 i = 0; i < users[msg.sender].factories.length; i++) {\r\n            if (users[msg.sender].factories[i] == factory_id) {\r\n                users[msg.sender].factories[i] == 0;\r\n                break;\r\n            }\r\n        }\r\n        users[to].factories.push(factory_id);\r\n    }\r\n\r\n    function claimAll() public {\r\n        uint128[] memory amounts = users[msg.sender].flows;\r\n        uint128 t = uint128(block.timestamp) - users[msg.sender].lastclaimed;\r\n        if (t > 86400) t = 86400;\r\n        for (uint256 i = 0; i < amounts.length; i++) {\r\n            amounts[i] *= t;\r\n        }\r\n        for (uint256 i = 0; i < amounts.length; i++) {\r\n            if (amounts[i] > 0)\r\n                require(ERC20I(tokens[i]).mintTo(msg.sender, amounts[i]));\r\n        }\r\n        users[msg.sender].lastclaimed = uint64(block.timestamp);\r\n    }\r\n\r\n    function getArea(int128 x, int128 y)\r\n        public\r\n        view\r\n        returns (Relay[41][41] memory)\r\n    {\r\n        Relay[41][41] memory r;\r\n        for (uint128 i = 0; i < 41; i++) {\r\n            for (uint128 j = 0; j < 41; j++) {\r\n                Land memory l = lands[x - 20 + int128(i)][y - 20 + int128(j)];\r\n                r[i][j] = Relay(l.owner, l.seed, factories[l.ontop]);\r\n            }\r\n        }\r\n        return r;\r\n    }\r\n}\r\n",
  "sourcePath": "C:\\workshop\\web3\\truffle\\marsmello\\contracts\\Marsmello.sol",
  "compiler": {
    "name": "solc",
    "version": "0.8.6+commit.11564f7e.Emscripten.clang"
  },
  "schemaVersion": "3.4.2",
  "updatedAt": "2021-08-02T18:54:50.126Z",
  "devdoc": {
    "kind": "dev",
    "methods": {
      "allowance(address,address)": {
        "details": "See {IERC20-allowance}."
      },
      "approve(address,uint256)": {
        "details": "See {IERC20-approve}. Requirements: - `spender` cannot be the zero address."
      },
      "balanceOf(address)": {
        "details": "See {IERC20-balanceOf}."
      },
      "decimals()": {
        "details": "Returns the number of decimals used to get its user representation. For example, if `decimals` equals `2`, a balance of `505` tokens should be displayed to a user as `5,05` (`505 / 10 ** 2`). Tokens usually opt for a value of 18, imitating the relationship between Ether and Wei. This is the value {ERC20} uses, unless this function is overridden; NOTE: This information is only used for _display_ purposes: it in no way affects any of the arithmetic of the contract, including {IERC20-balanceOf} and {IERC20-transfer}."
      },
      "decreaseAllowance(address,uint256)": {
        "details": "Atomically decreases the allowance granted to `spender` by the caller. This is an alternative to {approve} that can be used as a mitigation for problems described in {IERC20-approve}. Emits an {Approval} event indicating the updated allowance. Requirements: - `spender` cannot be the zero address. - `spender` must have allowance for the caller of at least `subtractedValue`."
      },
      "increaseAllowance(address,uint256)": {
        "details": "Atomically increases the allowance granted to `spender` by the caller. This is an alternative to {approve} that can be used as a mitigation for problems described in {IERC20-approve}. Emits an {Approval} event indicating the updated allowance. Requirements: - `spender` cannot be the zero address."
      },
      "name()": {
        "details": "Returns the name of the token."
      },
      "owner()": {
        "details": "Returns the address of the current owner."
      },
      "renounceOwnership()": {
        "details": "Leaves the contract without owner. It will not be possible to call `onlyOwner` functions anymore. Can only be called by the current owner. NOTE: Renouncing ownership will leave the contract without an owner, thereby removing any functionality that is only available to the owner."
      },
      "symbol()": {
        "details": "Returns the symbol of the token, usually a shorter version of the name."
      },
      "totalSupply()": {
        "details": "See {IERC20-totalSupply}."
      },
      "transfer(address,uint256)": {
        "details": "See {IERC20-transfer}. Requirements: - `recipient` cannot be the zero address. - the caller must have a balance of at least `amount`."
      },
      "transferFrom(address,address,uint256)": {
        "details": "See {IERC20-transferFrom}. Emits an {Approval} event indicating the updated allowance. This is not required by the EIP. See the note at the beginning of {ERC20}. Requirements: - `sender` and `recipient` cannot be the zero address. - `sender` must have a balance of at least `amount`. - the caller must have allowance for ``sender``'s tokens of at least `amount`."
      },
      "transferOwnership(address)": {
        "details": "Transfers ownership of the contract to a new account (`newOwner`). Can only be called by the current owner."
      }
    },
    "version": 1
  },
  "userdoc": {
    "kind": "user",
    "methods": {},
    "version": 1
  }
}