{
  "contractName": "Marsmello",
  "abi": [
    {
      "inputs": [],
      "stateMutability": "nonpayable",
      "type": "constructor"
    },
    {
      "anonymous": false,
      "inputs": [
        {
          "indexed": true,
          "internalType": "address",
          "name": "owner",
          "type": "address"
        },
        {
          "indexed": true,
          "internalType": "address",
          "name": "spender",
          "type": "address"
        },
        {
          "indexed": false,
          "internalType": "uint256",
          "name": "value",
          "type": "uint256"
        }
      ],
      "name": "Approval",
      "type": "event"
    },
    {
      "anonymous": false,
      "inputs": [
        {
          "indexed": true,
          "internalType": "address",
          "name": "from",
          "type": "address"
        },
        {
          "indexed": true,
          "internalType": "address",
          "name": "to",
          "type": "address"
        },
        {
          "indexed": false,
          "internalType": "uint256",
          "name": "value",
          "type": "uint256"
        }
      ],
      "name": "Transfer",
      "type": "event"
    },
    {
      "inputs": [
        {
          "internalType": "address",
          "name": "owner",
          "type": "address"
        },
        {
          "internalType": "address",
          "name": "spender",
          "type": "address"
        }
      ],
      "name": "allowance",
      "outputs": [
        {
          "internalType": "uint256",
          "name": "",
          "type": "uint256"
        }
      ],
      "stateMutability": "view",
      "type": "function",
      "constant": true
    },
    {
      "inputs": [
        {
          "internalType": "address",
          "name": "spender",
          "type": "address"
        },
        {
          "internalType": "uint256",
          "name": "amount",
          "type": "uint256"
        }
      ],
      "name": "approve",
      "outputs": [
        {
          "internalType": "bool",
          "name": "",
          "type": "bool"
        }
      ],
      "stateMutability": "nonpayable",
      "type": "function"
    },
    {
      "inputs": [
        {
          "internalType": "address",
          "name": "account",
          "type": "address"
        }
      ],
      "name": "balanceOf",
      "outputs": [
        {
          "internalType": "uint256",
          "name": "",
          "type": "uint256"
        }
      ],
      "stateMutability": "view",
      "type": "function",
      "constant": true
    },
    {
      "inputs": [],
      "name": "decimals",
      "outputs": [
        {
          "internalType": "uint8",
          "name": "",
          "type": "uint8"
        }
      ],
      "stateMutability": "view",
      "type": "function",
      "constant": true
    },
    {
      "inputs": [
        {
          "internalType": "address",
          "name": "spender",
          "type": "address"
        },
        {
          "internalType": "uint256",
          "name": "subtractedValue",
          "type": "uint256"
        }
      ],
      "name": "decreaseAllowance",
      "outputs": [
        {
          "internalType": "bool",
          "name": "",
          "type": "bool"
        }
      ],
      "stateMutability": "nonpayable",
      "type": "function"
    },
    {
      "inputs": [
        {
          "internalType": "address",
          "name": "spender",
          "type": "address"
        },
        {
          "internalType": "uint256",
          "name": "addedValue",
          "type": "uint256"
        }
      ],
      "name": "increaseAllowance",
      "outputs": [
        {
          "internalType": "bool",
          "name": "",
          "type": "bool"
        }
      ],
      "stateMutability": "nonpayable",
      "type": "function"
    },
    {
      "inputs": [],
      "name": "name",
      "outputs": [
        {
          "internalType": "string",
          "name": "",
          "type": "string"
        }
      ],
      "stateMutability": "view",
      "type": "function",
      "constant": true
    },
    {
      "inputs": [],
      "name": "symbol",
      "outputs": [
        {
          "internalType": "string",
          "name": "",
          "type": "string"
        }
      ],
      "stateMutability": "view",
      "type": "function",
      "constant": true
    },
    {
      "inputs": [],
      "name": "totalSupply",
      "outputs": [
        {
          "internalType": "uint256",
          "name": "",
          "type": "uint256"
        }
      ],
      "stateMutability": "view",
      "type": "function",
      "constant": true
    },
    {
      "inputs": [
        {
          "internalType": "address",
          "name": "recipient",
          "type": "address"
        },
        {
          "internalType": "uint256",
          "name": "amount",
          "type": "uint256"
        }
      ],
      "name": "transfer",
      "outputs": [
        {
          "internalType": "bool",
          "name": "",
          "type": "bool"
        }
      ],
      "stateMutability": "nonpayable",
      "type": "function"
    },
    {
      "inputs": [
        {
          "internalType": "address",
          "name": "sender",
          "type": "address"
        },
        {
          "internalType": "address",
          "name": "recipient",
          "type": "address"
        },
        {
          "internalType": "uint256",
          "name": "amount",
          "type": "uint256"
        }
      ],
      "name": "transferFrom",
      "outputs": [
        {
          "internalType": "bool",
          "name": "",
          "type": "bool"
        }
      ],
      "stateMutability": "nonpayable",
      "type": "function"
    },
    {
      "inputs": [
        {
          "internalType": "address",
          "name": "user",
          "type": "address"
        }
      ],
      "name": "getUserData",
      "outputs": [
        {
          "internalType": "uint256[]",
          "name": "",
          "type": "uint256[]"
        },
        {
          "components": [
            {
              "internalType": "int256",
              "name": "x",
              "type": "int256"
            },
            {
              "internalType": "int256",
              "name": "y",
              "type": "int256"
            }
          ],
          "internalType": "struct Marsmello.CoOrdinates[]",
          "name": "",
          "type": "tuple[]"
        }
      ],
      "stateMutability": "view",
      "type": "function",
      "constant": true
    },
    {
      "inputs": [],
      "name": "getLandPrice",
      "outputs": [
        {
          "internalType": "uint256",
          "name": "",
          "type": "uint256"
        }
      ],
      "stateMutability": "view",
      "type": "function",
      "constant": true
    },
    {
      "inputs": [
        {
          "internalType": "string",
          "name": "name",
          "type": "string"
        },
        {
          "internalType": "uint8",
          "name": "ftype",
          "type": "uint8"
        },
        {
          "internalType": "uint8",
          "name": "efficiency",
          "type": "uint8"
        }
      ],
      "name": "mintFactory",
      "outputs": [
        {
          "internalType": "bool",
          "name": "",
          "type": "bool"
        }
      ],
      "stateMutability": "nonpayable",
      "type": "function"
    },
    {
      "inputs": [
        {
          "internalType": "uint256",
          "name": "seed",
          "type": "uint256"
        }
      ],
      "name": "calcOreDist",
      "outputs": [
        {
          "internalType": "uint16[5]",
          "name": "",
          "type": "uint16[5]"
        }
      ],
      "stateMutability": "pure",
      "type": "function",
      "constant": true
    },
    {
      "inputs": [
        {
          "internalType": "int256",
          "name": "x",
          "type": "int256"
        },
        {
          "internalType": "int256",
          "name": "y",
          "type": "int256"
        }
      ],
      "name": "mintLand",
      "outputs": [
        {
          "internalType": "bool",
          "name": "",
          "type": "bool"
        }
      ],
      "stateMutability": "nonpayable",
      "type": "function"
    },
    {
      "inputs": [
        {
          "internalType": "uint256",
          "name": "factory_id",
          "type": "uint256"
        },
        {
          "internalType": "int256",
          "name": "x",
          "type": "int256"
        },
        {
          "internalType": "int256",
          "name": "y",
          "type": "int256"
        }
      ],
      "name": "placeFactory",
      "outputs": [
        {
          "internalType": "bool",
          "name": "",
          "type": "bool"
        }
      ],
      "stateMutability": "nonpayable",
      "type": "function"
    },
    {
      "inputs": [
        {
          "internalType": "address",
          "name": "to",
          "type": "address"
        },
        {
          "internalType": "int256",
          "name": "x",
          "type": "int256"
        },
        {
          "internalType": "int256",
          "name": "y",
          "type": "int256"
        }
      ],
      "name": "transferLand",
      "outputs": [
        {
          "internalType": "bool",
          "name": "",
          "type": "bool"
        }
      ],
      "stateMutability": "nonpayable",
      "type": "function"
    },
    {
      "inputs": [
        {
          "internalType": "address",
          "name": "to",
          "type": "address"
        },
        {
          "internalType": "uint256",
          "name": "factory_id",
          "type": "uint256"
        }
      ],
      "name": "transferFactory",
      "outputs": [],
      "stateMutability": "nonpayable",
      "type": "function"
    },
    {
      "inputs": [
        {
          "internalType": "int256",
          "name": "x",
          "type": "int256"
        },
        {
          "internalType": "int256",
          "name": "y",
          "type": "int256"
        }
      ],
      "name": "getArea",
      "outputs": [
        {
          "components": [
            {
              "internalType": "address",
              "name": "owner",
              "type": "address"
            },
            {
              "internalType": "uint256",
              "name": "seed",
              "type": "uint256"
            },
            {
              "internalType": "uint16[5]",
              "name": "ores",
              "type": "uint16[5]"
            },
            {
              "components": [
                {
                  "internalType": "string",
                  "name": "name",
                  "type": "string"
                },
                {
                  "internalType": "address",
                  "name": "owner",
                  "type": "address"
                },
                {
                  "internalType": "uint64",
                  "name": "ftype",
                  "type": "uint64"
                },
                {
                  "internalType": "uint64",
                  "name": "efficiency",
                  "type": "uint64"
                },
                {
                  "internalType": "uint256",
                  "name": "lastclaimed",
                  "type": "uint256"
                },
                {
                  "components": [
                    {
                      "internalType": "int256",
                      "name": "x",
                      "type": "int256"
                    },
                    {
                      "internalType": "int256",
                      "name": "y",
                      "type": "int256"
                    }
                  ],
                  "internalType": "struct Marsmello.CoOrdinates",
                  "name": "placedon",
                  "type": "tuple"
                }
              ],
              "internalType": "struct Marsmello.Factory",
              "name": "ontop",
              "type": "tuple"
            }
          ],
          "internalType": "struct Marsmello.Relay[41][41]",
          "name": "",
          "type": "tuple[41][41]"
        }
      ],
      "stateMutability": "view",
      "type": "function",
      "constant": true
    }
  ],
  "bytecode": "0x60806040526040518060400160405280600a81526020017f4d6172734d656c6c6f77000000000000000000000000000000000000000000008152506005908051906020019062000051929190620005a2565b506040518060400160405280600381526020017f4d4c4f0000000000000000000000000000000000000000000000000000000000815250600690805190602001906200009f929190620005a2565b50633b9aca0060075567ab54a98ceb1f0ad2600955620000c46200041660201b60201c565b600a620000d2919062000814565b6103e8620000e1919062000951565b600a556000600b556040518060a0016040528073110472d9b5661dc1d8ba8c637dbde1f5a813cd8a73ffffffffffffffffffffffffffffffffffffffff1673ffffffffffffffffffffffffffffffffffffffff168152602001737155651d11c869f76be988cf30be3b856f29e90573ffffffffffffffffffffffffffffffffffffffff1673ffffffffffffffffffffffffffffffffffffffff16815260200173e8d98e3331c0434d38ffb8041ef2ef233c41cf7073ffffffffffffffffffffffffffffffffffffffff1673ffffffffffffffffffffffffffffffffffffffff1681526020017338a3fd50bf7240988639d7da8a0ecd91052af1d173ffffffffffffffffffffffffffffffffffffffff1673ffffffffffffffffffffffffffffffffffffffff168152602001738042a576cb35d83cbece64e211bf0570f72e4cfd73ffffffffffffffffffffffffffffffffffffffff1673ffffffffffffffffffffffffffffffffffffffff16815250600c9060056200026292919062000633565b503480156200027057600080fd5b50600580546200028090620009c9565b80601f0160208091040260200160405190810160405280929190818152602001828054620002ae90620009c9565b8015620002ff5780601f10620002d357610100808354040283529160200191620002ff565b820191906000526020600020905b815481529060010190602001808311620002e157829003601f168201915b5050505050600680546200031390620009c9565b80601f01602080910402602001604051908101604052809291908181526020018280546200034190620009c9565b8015620003925780601f10620003665761010080835404028352916020019162000392565b820191906000526020600020905b8154815290600101906020018083116200037457829003601f168201915b50505050508160039080519060200190620003af929190620005a2565b508060049080519060200190620003c8929190620005a2565b5050506200040933620003e06200041660201b60201c565b600a620003ee919062000814565b600754620003fd919062000951565b6200041f60201b60201c565b4260088190555062000a93565b60006012905090565b600073ffffffffffffffffffffffffffffffffffffffff168273ffffffffffffffffffffffffffffffffffffffff16141562000492576040517f08c379a000000000000000000000000000000000000000000000000000000000815260040162000489906200070c565b60405180910390fd5b620004a6600083836200059860201b60201c565b8060026000828254620004ba91906200075c565b92505081905550806000808473ffffffffffffffffffffffffffffffffffffffff1673ffffffffffffffffffffffffffffffffffffffff16815260200190815260200160002060008282546200051191906200075c565b925050819055508173ffffffffffffffffffffffffffffffffffffffff16600073ffffffffffffffffffffffffffffffffffffffff167fddf252ad1be2c89b69c2b068fc378daa952ba7f163c4a11628f55a4df523b3ef836040516200057891906200072e565b60405180910390a362000594600083836200059d60201b60201c565b5050565b505050565b505050565b828054620005b090620009c9565b90600052602060002090601f016020900481019282620005d4576000855562000620565b82601f10620005ef57805160ff191683800117855562000620565b8280016001018555821562000620579182015b828111156200061f57825182559160200191906001019062000602565b5b5090506200062f9190620006b5565b5090565b8260058101928215620006a2579160200282015b82811115620006a15782518260006101000a81548173ffffffffffffffffffffffffffffffffffffffff021916908373ffffffffffffffffffffffffffffffffffffffff1602179055509160200191906001019062000647565b5b509050620006b19190620006b5565b5090565b5b80821115620006d0576000816000905550600101620006b6565b5090565b6000620006e3601f836200074b565b9150620006f08262000a6a565b602082019050919050565b6200070681620009b2565b82525050565b600060208201905081810360008301526200072781620006d4565b9050919050565b6000602082019050620007456000830184620006fb565b92915050565b600082825260208201905092915050565b60006200076982620009b2565b91506200077683620009b2565b9250827fffffffffffffffffffffffffffffffffffffffffffffffffffffffffffffffff03821115620007ae57620007ad620009ff565b5b828201905092915050565b6000808291508390505b60018511156200080b57808604811115620007e357620007e2620009ff565b5b6001851615620007f35780820291505b8081029050620008038562000a5d565b9450620007c3565b94509492505050565b60006200082182620009b2565b91506200082e83620009bc565b92506200085d7fffffffffffffffffffffffffffffffffffffffffffffffffffffffffffffffff848462000865565b905092915050565b6000826200087757600190506200094a565b816200088757600090506200094a565b8160018114620008a05760028114620008ab57620008e1565b60019150506200094a565b60ff841115620008c057620008bf620009ff565b5b8360020a915084821115620008da57620008d9620009ff565b5b506200094a565b5060208310610133831016604e8410600b84101617156200091b5782820a905083811115620009155762000914620009ff565b5b6200094a565b6200092a8484846001620007b9565b92509050818404811115620009445762000943620009ff565b5b81810290505b9392505050565b60006200095e82620009b2565b91506200096b83620009b2565b9250817fffffffffffffffffffffffffffffffffffffffffffffffffffffffffffffffff0483118215151615620009a757620009a6620009ff565b5b828202905092915050565b6000819050919050565b600060ff82169050919050565b60006002820490506001821680620009e257607f821691505b60208210811415620009f957620009f862000a2e565b5b50919050565b7f4e487b7100000000000000000000000000000000000000000000000000000000600052601160045260246000fd5b7f4e487b7100000000000000000000000000000000000000000000000000000000600052602260045260246000fd5b60008160011c9050919050565b7f45524332303a206d696e7420746f20746865207a65726f206164647265737300600082015250565b613be88062000aa36000396000f3fe608060405234801561001057600080fd5b506004361061012c5760003560e01c80638b004aa8116100ad578063bd836bbd11610071578063bd836bbd146103a7578063bdbd0136146103c3578063cf42a3aa146103f3578063dd62ed3e14610423578063ffc9896b146104535761012c565b80638b004aa8146102c957806395d89b41146102f9578063a2464cb014610317578063a457c2d714610347578063a9059cbb146103775761012c565b806335b85d7a116100f457806335b85d7a146101eb57806339509351146102095780633e7b7fe91461023957806370a082311461026957806388e5b58b146102995761012c565b806306fdde0314610131578063095ea7b31461014f57806318160ddd1461017f57806323b872dd1461019d578063313ce567146101cd575b600080fd5b610139610484565b604051610146919061303e565b60405180910390f35b6101696004803603810190610164919061277e565b610516565b6040516101769190613023565b60405180910390f35b610187610534565b60405161019491906131e0565b60405180910390f35b6101b760048036038101906101b291906126d8565b61053e565b6040516101c49190613023565b60405180910390f35b6101d5610636565b6040516101e291906131fb565b60405180910390f35b6101f361063f565b60405161020091906131e0565b60405180910390f35b610223600480360381019061021e919061277e565b610649565b6040516102309190613023565b60405180910390f35b610253600480360381019061024e919061289a565b6106f5565b6040516102609190613023565b60405180910390f35b610283600480360381019061027e919061266b565b610993565b60405161029091906131e0565b60405180910390f35b6102b360048036038101906102ae919061272b565b6109db565b6040516102c09190613023565b60405180910390f35b6102e360048036038101906102de91906127fe565b610dc0565b6040516102f09190613023565b60405180910390f35b610301611020565b60405161030e919061303e565b60405180910390f35b610331600480360381019061032c919061286d565b6110b2565b60405161033e9190612fd1565b60405180910390f35b610361600480360381019061035c919061277e565b611120565b60405161036e9190613023565b60405180910390f35b610391600480360381019061038c919061277e565b61120b565b60405161039e9190613023565b60405180910390f35b6103c160048036038101906103bc919061277e565b611229565b005b6103dd60048036038101906103d891906127be565b61151a565b6040516103ea9190613023565b60405180910390f35b61040d600480360381019061040891906127be565b611854565b60405161041a9190612faf565b60405180910390f35b61043d60048036038101906104389190612698565b611c0a565b60405161044a91906131e0565b60405180910390f35b61046d6004803603810190610468919061266b565b611c91565b60405161047b929190612fec565b60405180910390f35b60606003805461049390613643565b80601f01602080910402602001604051908101604052809291908181526020018280546104bf90613643565b801561050c5780601f106104e15761010080835404028352916020019161050c565b820191906000526020600020905b8154815290600101906020018083116104ef57829003601f168201915b5050505050905090565b600061052a610523611de0565b8484611de8565b6001905092915050565b6000600254905090565b600061054b848484611fb3565b6000600160008673ffffffffffffffffffffffffffffffffffffffff1673ffffffffffffffffffffffffffffffffffffffff1681526020019081526020016000206000610596611de0565b73ffffffffffffffffffffffffffffffffffffffff1673ffffffffffffffffffffffffffffffffffffffff16815260200190815260200160002054905082811015610616576040517f08c379a000000000000000000000000000000000000000000000000000000000815260040161060d906130e0565b60405180910390fd5b61062a85610622611de0565b858403611de8565b60019150509392505050565b60006012905090565b6000600a54905090565b60006106eb610656611de0565b848460016000610664611de0565b73ffffffffffffffffffffffffffffffffffffffff1673ffffffffffffffffffffffffffffffffffffffff16815260200190815260200160002060008873ffffffffffffffffffffffffffffffffffffffff1673ffffffffffffffffffffffffffffffffffffffff168152602001908152602001600020546106e69190613431565b611de8565b6001905092915050565b600082823373ffffffffffffffffffffffffffffffffffffffff1660116000848152602001908152602001600020600083815260200190815260200160002060000160009054906101000a900473ffffffffffffffffffffffffffffffffffffffff1673ffffffffffffffffffffffffffffffffffffffff16146107ae576040517f08c379a00000000000000000000000000000000000000000000000000000000081526004016107a590613120565b60405180910390fd5b853373ffffffffffffffffffffffffffffffffffffffff16601282815481106107da576107d96137b7565b5b906000526020600020906006020160010160009054906101000a900473ffffffffffffffffffffffffffffffffffffffff1673ffffffffffffffffffffffffffffffffffffffff1614610862576040517f08c379a0000000000000000000000000000000000000000000000000000000008152600401610859906130c0565b60405180910390fd5b61089260116000888152602001908152602001600020600087815260200190815260200160002060030154612234565b6108de601288815481106108a9576108a86137b7565b5b9060005260206000209060060201600401604051806040016040529081600082015481526020016001820154815250506122be565b866011600088815260200190815260200160002060008781526020019081526020016000206003018190555060405180604001604052808781526020018681525060128881548110610933576109326137b7565b5b9060005260206000209060060201600401600082015181600001556020820151816001015590505042601288815481106109705761096f6137b7565b5b906000526020600020906006020160030181905550600193505050509392505050565b60008060008373ffffffffffffffffffffffffffffffffffffffff1673ffffffffffffffffffffffffffffffffffffffff168152602001908152602001600020549050919050565b600082823373ffffffffffffffffffffffffffffffffffffffff1660116000848152602001908152602001600020600083815260200190815260200160002060000160009054906101000a900473ffffffffffffffffffffffffffffffffffffffff1673ffffffffffffffffffffffffffffffffffffffff1614610a94576040517f08c379a0000000000000000000000000000000000000000000000000000000008152600401610a8b90613120565b60405180910390fd5b610ac460116000878152602001908152602001600020600086815260200190815260200160002060030154612234565b610ae16040518060400160405280878152602001868152506122be565b8560116000878152602001908152602001600020600086815260200190815260200160002060000160006101000a81548173ffffffffffffffffffffffffffffffffffffffff021916908373ffffffffffffffffffffffffffffffffffffffff16021790555060005b601360003373ffffffffffffffffffffffffffffffffffffffff1673ffffffffffffffffffffffffffffffffffffffff16815260200190815260200160002060010180549050811015610d1c5785601360003373ffffffffffffffffffffffffffffffffffffffff1673ffffffffffffffffffffffffffffffffffffffff1681526020019081526020016000206001018281548110610bec57610beb6137b7565b5b906000526020600020906002020160000154148015610c6f575084601360003373ffffffffffffffffffffffffffffffffffffffff1673ffffffffffffffffffffffffffffffffffffffff1681526020019081526020016000206001018281548110610c5b57610c5a6137b7565b5b906000526020600020906002020160010154145b15610d09576040518060400160405280600081526020016000815250601360003373ffffffffffffffffffffffffffffffffffffffff1673ffffffffffffffffffffffffffffffffffffffff1681526020019081526020016000206001018281548110610cdf57610cde6137b7565b5b90600052602060002090600202016000820151816000015560208201518160010155905050610d1c565b8080610d14906136a6565b915050610b4a565b50601360008773ffffffffffffffffffffffffffffffffffffffff1673ffffffffffffffffffffffffffffffffffffffff1681526020019081526020016000206001016040518060400160405280878152602001868152509080600181540180825580915050600190039060005260206000209060020201600090919091909150600082015181600001556020820151816001015550506001925050509392505050565b60006103e8610dce33610993565b1015610e0f576040517f08c379a0000000000000000000000000000000000000000000000000000000008152600401610e0690613140565b60405180910390fd5b60126040518060c001604052808681526020013373ffffffffffffffffffffffffffffffffffffffff1681526020018560ff1667ffffffffffffffff1681526020018460ff1667ffffffffffffffff16815260200160008152602001604051806040016040528060008152602001600081525081525090806001815401808255809150506001900390600052602060002090600602016000909190919091506000820151816000019080519060200190610eca92919061231f565b5060208201518160010160006101000a81548173ffffffffffffffffffffffffffffffffffffffff021916908373ffffffffffffffffffffffffffffffffffffffff16021790555060408201518160010160146101000a81548167ffffffffffffffff021916908367ffffffffffffffff16021790555060608201518160020160006101000a81548167ffffffffffffffff021916908367ffffffffffffffff1602179055506080820151816003015560a082015181600401600082015181600001556020820151816001015550505050601360003373ffffffffffffffffffffffffffffffffffffffff1673ffffffffffffffffffffffffffffffffffffffff1681526020019081526020016000206000016001601280549050610fef919061354c565b9080600181540180825580915050600190039060005260206000200160009091909190915055600190509392505050565b60606004805461102f90613643565b80601f016020809104026020016040519081016040528092919081815260200182805461105b90613643565b80156110a85780601f1061107d576101008083540402835291602001916110a8565b820191906000526020600020905b81548152906001019060200180831161108b57829003601f168201915b5050505050905090565b6110ba6123a5565b6040518060a00160405280601761ffff1661ffff168152602001601161ffff1661ffff168152602001600d61ffff1661ffff168152602001600a61ffff1661ffff16815260200160058461110e91906136f9565b61ffff1661ffff168152509050919050565b6000806001600061112f611de0565b73ffffffffffffffffffffffffffffffffffffffff1673ffffffffffffffffffffffffffffffffffffffff16815260200190815260200160002060008573ffffffffffffffffffffffffffffffffffffffff1673ffffffffffffffffffffffffffffffffffffffff168152602001908152602001600020549050828110156111ec576040517f08c379a00000000000000000000000000000000000000000000000000000000081526004016111e3906131c0565b60405180910390fd5b6112006111f7611de0565b85858403611de8565b600191505092915050565b600061121f611218611de0565b8484611fb3565b6001905092915050565b803373ffffffffffffffffffffffffffffffffffffffff1660128281548110611255576112546137b7565b5b906000526020600020906006020160010160009054906101000a900473ffffffffffffffffffffffffffffffffffffffff1673ffffffffffffffffffffffffffffffffffffffff16146112dd576040517f08c379a00000000000000000000000000000000000000000000000000000000081526004016112d4906130c0565b60405180910390fd5b6000601283815481106112f3576112f26137b7565b5b9060005260206000209060060201905061132e81600401604051806040016040529081600082015481526020016001820154815250506122be565b61133783612234565b838160010160006101000a81548173ffffffffffffffffffffffffffffffffffffffff021916908373ffffffffffffffffffffffffffffffffffffffff16021790555060005b601360003373ffffffffffffffffffffffffffffffffffffffff1673ffffffffffffffffffffffffffffffffffffffff168152602001908152602001600020600001805490508110156114aa5783601360003373ffffffffffffffffffffffffffffffffffffffff1673ffffffffffffffffffffffffffffffffffffffff168152602001908152602001600020600001828154811061141f5761141e6137b7565b5b90600052602060002001541415611497576000601360003373ffffffffffffffffffffffffffffffffffffffff1673ffffffffffffffffffffffffffffffffffffffff1681526020019081526020016000206000018281548110611486576114856137b7565b5b9060005260206000205050506114aa565b80806114a2906136a6565b91505061137d565b50601360008573ffffffffffffffffffffffffffffffffffffffff1673ffffffffffffffffffffffffffffffffffffffff16815260200190815260200160002060000183908060018154018082558091505060019003906000526020600020016000909190919091505550505050565b600080831415801561152d575060008214155b61156c576040517f08c379a000000000000000000000000000000000000000000000000000000000815260040161156390613100565b60405180910390fd5b600073ffffffffffffffffffffffffffffffffffffffff1660116000858152602001908152602001600020600084815260200190815260200160002060000160009054906101000a900473ffffffffffffffffffffffffffffffffffffffff1673ffffffffffffffffffffffffffffffffffffffff1614611622576040517f08c379a000000000000000000000000000000000000000000000000000000000815260040161161990613160565b60405180910390fd5b600a5461162e33610993565b101561166f576040517f08c379a000000000000000000000000000000000000000000000000000000000815260040161166690613140565b60405180910390fd5b61167c3330600a54611fb3565b6064600a5461168b9190613487565b600a600082825461169c9190613431565b92505081905550600060095442600a546040516020016116be93929190612f72565b6040516020818303038152906040528051906020012060001c905060405180608001604052803373ffffffffffffffffffffffffffffffffffffffff16815260200182815260200161170f836110b2565b8152602001600081525060116000868152602001908152602001600020600085815260200190815260200160002060008201518160000160006101000a81548173ffffffffffffffffffffffffffffffffffffffff021916908373ffffffffffffffffffffffffffffffffffffffff160217905550602082015181600101556040820151816002019060056117a59291906123c7565b5060608201518160030155905050601360003373ffffffffffffffffffffffffffffffffffffffff1673ffffffffffffffffffffffffffffffffffffffff168152602001908152602001600020600101604051806040016040528086815260200185815250908060018154018082558091505060019003906000526020600020906002020160009091909190915060008201518160000155602082015181600101555050600191505092915050565b61185c612464565b611864612464565b60005b6029811015611bff5760005b6029811015611beb576000601160008460148a61189091906134b8565b61189a919061339d565b81526020019081526020016000206000836014896118b891906134b8565b6118c2919061339d565b81526020019081526020016000206040518060800160405290816000820160009054906101000a900473ffffffffffffffffffffffffffffffffffffffff1673ffffffffffffffffffffffffffffffffffffffff1673ffffffffffffffffffffffffffffffffffffffff168152602001600182015481526020016002820160058060200260405190810160405280929190826005801561199f576020028201916000905b82829054906101000a900461ffff1661ffff16815260200190600201906020826001010492830192600103820291508084116119665790505b5050505050815260200160038201548152505090506040518060800160405280826000015173ffffffffffffffffffffffffffffffffffffffff16815260200182602001518152602001826040015181526020016012836060015181548110611a0b57611a0a6137b7565b5b90600052602060002090600602016040518060c0016040529081600082018054611a3490613643565b80601f0160208091040260200160405190810160405280929190818152602001828054611a6090613643565b8015611aad5780601f10611a8257610100808354040283529160200191611aad565b820191906000526020600020905b815481529060010190602001808311611a9057829003601f168201915b505050505081526020016001820160009054906101000a900473ffffffffffffffffffffffffffffffffffffffff1673ffffffffffffffffffffffffffffffffffffffff1673ffffffffffffffffffffffffffffffffffffffff1681526020016001820160149054906101000a900467ffffffffffffffff1667ffffffffffffffff1667ffffffffffffffff1681526020016002820160009054906101000a900467ffffffffffffffff1667ffffffffffffffff1667ffffffffffffffff16815260200160038201548152602001600482016040518060400160405290816000820154815260200160018201548152505081525050815250848460298110611bb857611bb76137b7565b5b60200201518360298110611bcf57611bce6137b7565b5b6020020181905250508080611be3906136a6565b915050611873565b508080611bf7906136a6565b915050611867565b508091505092915050565b6000600160008473ffffffffffffffffffffffffffffffffffffffff1673ffffffffffffffffffffffffffffffffffffffff16815260200190815260200160002060008373ffffffffffffffffffffffffffffffffffffffff1673ffffffffffffffffffffffffffffffffffffffff16815260200190815260200160002054905092915050565b606080601360008473ffffffffffffffffffffffffffffffffffffffff1673ffffffffffffffffffffffffffffffffffffffff168152602001908152602001600020600001601360008573ffffffffffffffffffffffffffffffffffffffff1673ffffffffffffffffffffffffffffffffffffffff16815260200190815260200160002060010181805480602002602001604051908101604052809291908181526020018280548015611d6357602002820191906000526020600020905b815481526020019060010190808311611d4f575b5050505050915080805480602002602001604051908101604052809291908181526020016000905b82821015611dd157838290600052602060002090600202016040518060400160405290816000820154815260200160018201548152505081526020019060010190611d8b565b50505050905091509150915091565b600033905090565b600073ffffffffffffffffffffffffffffffffffffffff168373ffffffffffffffffffffffffffffffffffffffff161415611e58576040517f08c379a0000000000000000000000000000000000000000000000000000000008152600401611e4f906131a0565b60405180910390fd5b600073ffffffffffffffffffffffffffffffffffffffff168273ffffffffffffffffffffffffffffffffffffffff161415611ec8576040517f08c379a0000000000000000000000000000000000000000000000000000000008152600401611ebf90613080565b60405180910390fd5b80600160008573ffffffffffffffffffffffffffffffffffffffff1673ffffffffffffffffffffffffffffffffffffffff16815260200190815260200160002060008473ffffffffffffffffffffffffffffffffffffffff1673ffffffffffffffffffffffffffffffffffffffff168152602001908152602001600020819055508173ffffffffffffffffffffffffffffffffffffffff168373ffffffffffffffffffffffffffffffffffffffff167f8c5be1e5ebec7d5bd14f71427d1e84f3dd0314c0f7b2291e5b200ac8c7c3b92583604051611fa691906131e0565b60405180910390a3505050565b600073ffffffffffffffffffffffffffffffffffffffff168373ffffffffffffffffffffffffffffffffffffffff161415612023576040517f08c379a000000000000000000000000000000000000000000000000000000000815260040161201a90613180565b60405180910390fd5b600073ffffffffffffffffffffffffffffffffffffffff168273ffffffffffffffffffffffffffffffffffffffff161415612093576040517f08c379a000000000000000000000000000000000000000000000000000000000815260040161208a90613060565b60405180910390fd5b61209e838383612315565b60008060008573ffffffffffffffffffffffffffffffffffffffff1673ffffffffffffffffffffffffffffffffffffffff16815260200190815260200160002054905081811015612124576040517f08c379a000000000000000000000000000000000000000000000000000000000815260040161211b906130a0565b60405180910390fd5b8181036000808673ffffffffffffffffffffffffffffffffffffffff1673ffffffffffffffffffffffffffffffffffffffff16815260200190815260200160002081905550816000808573ffffffffffffffffffffffffffffffffffffffff1673ffffffffffffffffffffffffffffffffffffffff16815260200190815260200160002060008282546121b79190613431565b925050819055508273ffffffffffffffffffffffffffffffffffffffff168473ffffffffffffffffffffffffffffffffffffffff167fddf252ad1be2c89b69c2b068fc378daa952ba7f163c4a11628f55a4df523b3ef8460405161221b91906131e0565b60405180910390a361222e84848461231a565b50505050565b600081146122bb57604051806040016040528060008152602001600081525060128281548110612267576122666137b7565b5b906000526020600020906006020160040160008201518160000155602082015181600101559050506000601282815481106122a5576122a46137b7565b5b9060005260206000209060060201600301819055505b50565b600081600001511415806122d757506000816020015114155b156123125760006011600083600001518152602001908152602001600020600083602001518152602001908152602001600020600301819055505b50565b505050565b505050565b82805461232b90613643565b90600052602060002090601f01602090048101928261234d5760008555612394565b82601f1061236657805160ff1916838001178555612394565b82800160010185558215612394579182015b82811115612393578251825591602001919060010190612378565b5b5090506123a19190612492565b5090565b6040518060a00160405280600590602082028036833780820191505090505090565b826005600f016010900481019282156124535791602002820160005b8382111561242357835183826101000a81548161ffff021916908361ffff16021790555092602001926002016020816001010492830192600103026123e3565b80156124515782816101000a81549061ffff0219169055600201602081600101049283019260010302612423565b505b5090506124609190612492565b5090565b6040518061052001604052806029905b61247c6124af565b8152602001906001900390816124745790505090565b5b808211156124ab576000816000905550600101612493565b5090565b6040518061052001604052806029905b6124c76124dd565b8152602001906001900390816124bf5790505090565b6040518060800160405280600073ffffffffffffffffffffffffffffffffffffffff168152602001600081526020016125146123a5565b8152602001612521612527565b81525090565b6040518060c0016040528060608152602001600073ffffffffffffffffffffffffffffffffffffffff168152602001600067ffffffffffffffff168152602001600067ffffffffffffffff1681526020016000815260200161258761258d565b81525090565b604051806040016040528060008152602001600081525090565b60006125ba6125b58461323b565b613216565b9050828152602081018484840111156125d6576125d561381a565b5b6125e1848285613601565b509392505050565b6000813590506125f881613b56565b92915050565b60008135905061260d81613b6d565b92915050565b600082601f83011261262857612627613815565b5b81356126388482602086016125a7565b91505092915050565b60008135905061265081613b84565b92915050565b60008135905061266581613b9b565b92915050565b60006020828403121561268157612680613824565b5b600061268f848285016125e9565b91505092915050565b600080604083850312156126af576126ae613824565b5b60006126bd858286016125e9565b92505060206126ce858286016125e9565b9150509250929050565b6000806000606084860312156126f1576126f0613824565b5b60006126ff868287016125e9565b9350506020612710868287016125e9565b925050604061272186828701612641565b9150509250925092565b60008060006060848603121561274457612743613824565b5b6000612752868287016125e9565b9350506020612763868287016125fe565b9250506040612774868287016125fe565b9150509250925092565b6000806040838503121561279557612794613824565b5b60006127a3858286016125e9565b92505060206127b485828601612641565b9150509250929050565b600080604083850312156127d5576127d4613824565b5b60006127e3858286016125fe565b92505060206127f4858286016125fe565b9150509250929050565b60008060006060848603121561281757612816613824565b5b600084013567ffffffffffffffff8111156128355761283461381f565b5b61284186828701612613565b935050602061285286828701612656565b925050604061286386828701612656565b9150509250925092565b60006020828403121561288357612882613824565b5b600061289184828501612641565b91505092915050565b6000806000606084860312156128b3576128b2613824565b5b60006128c186828701612641565b93505060206128d2868287016125fe565b92505060406128e3868287016125fe565b9150509250925092565b60006128f98383612a3f565b905092915050565b600061290d8383612df4565b60408301905092915050565b60006129258383612eac565b905092915050565b60006129398383612f10565b60208301905092915050565b60006129518383612f1f565b60208301905092915050565b61296681613580565b82525050565b6000612977826132aa565b612981818561332d565b9350836020820285016129938561326c565b8060005b858110156129cf57848403895281516129b085826128ed565b94506129bb836132ec565b925060208a01995050600181019050612997565b50829750879550505050505092915050565b60006129ec826132b5565b6129f68185613338565b9350612a0183613276565b8060005b83811015612a32578151612a198882612901565b9750612a24836132f9565b925050600181019050612a05565b5085935050505092915050565b6000612a4a826132c0565b612a548185613349565b935083602082028501612a6685613286565b8060005b85811015612aa25784840389528151612a838582612919565b9450612a8e83613306565b925060208a01995050600181019050612a6a565b50829750879550505050505092915050565b612abd816132cb565b612ac78184613354565b9250612ad282613290565b8060005b83811015612b03578151612aea878261292d565b9650612af583613313565b925050600181019050612ad6565b505050505050565b612b14816132cb565b612b1e818461335f565b9250612b2982613290565b8060005b83811015612b5a578151612b41878261292d565b9650612b4c83613313565b925050600181019050612b2d565b505050505050565b6000612b6d826132d6565b612b77818561336a565b9350612b828361329a565b8060005b83811015612bb3578151612b9a8882612945565b9750612ba583613320565b925050600181019050612b86565b5085935050505092915050565b612bc981613592565b82525050565b612bd88161359e565b82525050565b6000612be9826132e1565b612bf3818561337b565b9350612c03818560208601613610565b612c0c81613829565b840191505092915050565b6000612c22826132e1565b612c2c818561338c565b9350612c3c818560208601613610565b612c4581613829565b840191505092915050565b6000612c5d60238361338c565b9150612c688261383a565b604082019050919050565b6000612c8060228361338c565b9150612c8b82613889565b604082019050919050565b6000612ca360268361338c565b9150612cae826138d8565b604082019050919050565b6000612cc6601f8361338c565b9150612cd182613927565b602082019050919050565b6000612ce960288361338c565b9150612cf482613950565b604082019050919050565b6000612d0c60118361338c565b9150612d178261399f565b602082019050919050565b6000612d2f601c8361338c565b9150612d3a826139c8565b602082019050919050565b6000612d52602b8361338c565b9150612d5d826139f1565b604082019050919050565b6000612d7560158361338c565b9150612d8082613a40565b602082019050919050565b6000612d9860258361338c565b9150612da382613a69565b604082019050919050565b6000612dbb60248361338c565b9150612dc682613ab8565b604082019050919050565b6000612dde60258361338c565b9150612de982613b07565b604082019050919050565b604082016000820151612e0a6000850182612bcf565b506020820151612e1d6020850182612bcf565b50505050565b600060e0830160008301518482036000860152612e408282612bde565b9150506020830151612e55602086018261295d565b506040830151612e686040860182612f54565b506060830151612e7b6060860182612f54565b506080830151612e8e6080860182612f1f565b5060a0830151612ea160a0860182612df4565b508091505092915050565b600061010083016000830151612ec5600086018261295d565b506020830151612ed86020860182612f1f565b506040830151612eeb6040860182612ab4565b50606083015184820360e0860152612f038282612e23565b9150508091505092915050565b612f19816135a8565b82525050565b612f28816135d6565b82525050565b612f37816135d6565b82525050565b612f4e612f49826135d6565b6136ef565b82525050565b612f5d816135e0565b82525050565b612f6c816135f4565b82525050565b6000612f7e8286612f3d565b602082019150612f8e8285612f3d565b602082019150612f9e8284612f3d565b602082019150819050949350505050565b60006020820190508181036000830152612fc9818461296c565b905092915050565b600060a082019050612fe66000830184612b0b565b92915050565b600060408201905081810360008301526130068185612b62565b9050818103602083015261301a81846129e1565b90509392505050565b60006020820190506130386000830184612bc0565b92915050565b600060208201905081810360008301526130588184612c17565b905092915050565b6000602082019050818103600083015261307981612c50565b9050919050565b6000602082019050818103600083015261309981612c73565b9050919050565b600060208201905081810360008301526130b981612c96565b9050919050565b600060208201905081810360008301526130d981612cb9565b9050919050565b600060208201905081810360008301526130f981612cdc565b9050919050565b6000602082019050818103600083015261311981612cff565b9050919050565b6000602082019050818103600083015261313981612d22565b9050919050565b6000602082019050818103600083015261315981612d45565b9050919050565b6000602082019050818103600083015261317981612d68565b9050919050565b6000602082019050818103600083015261319981612d8b565b9050919050565b600060208201905081810360008301526131b981612dae565b9050919050565b600060208201905081810360008301526131d981612dd1565b9050919050565b60006020820190506131f56000830184612f2e565b92915050565b60006020820190506132106000830184612f63565b92915050565b6000613220613231565b905061322c8282613675565b919050565b6000604051905090565b600067ffffffffffffffff821115613256576132556137e6565b5b61325f82613829565b9050602081019050919050565b6000819050919050565b6000819050602082019050919050565b6000819050919050565b6000819050919050565b6000819050602082019050919050565b600060299050919050565b600081519050919050565b600060299050919050565b600060059050919050565b600081519050919050565b600081519050919050565b6000602082019050919050565b6000602082019050919050565b6000602082019050919050565b6000602082019050919050565b6000602082019050919050565b600081905092915050565b600082825260208201905092915050565b600081905092915050565b600081905092915050565b600081905092915050565b600082825260208201905092915050565b600082825260208201905092915050565b600082825260208201905092915050565b60006133a88261359e565b91506133b38361359e565b9250817f7fffffffffffffffffffffffffffffffffffffffffffffffffffffffffffffff038313600083121516156133ee576133ed61372a565b5b817f80000000000000000000000000000000000000000000000000000000000000000383126000831216156134265761342561372a565b5b828201905092915050565b600061343c826135d6565b9150613447836135d6565b9250827fffffffffffffffffffffffffffffffffffffffffffffffffffffffffffffffff0382111561347c5761347b61372a565b5b828201905092915050565b6000613492826135d6565b915061349d836135d6565b9250826134ad576134ac613759565b5b828204905092915050565b60006134c38261359e565b91506134ce8361359e565b9250827f8000000000000000000000000000000000000000000000000000000000000000018212600084121516156135095761350861372a565b5b827f7fffffffffffffffffffffffffffffffffffffffffffffffffffffffffffffff0182136000841216156135415761354061372a565b5b828203905092915050565b6000613557826135d6565b9150613562836135d6565b9250828210156135755761357461372a565b5b828203905092915050565b600061358b826135b6565b9050919050565b60008115159050919050565b6000819050919050565b600061ffff82169050919050565b600073ffffffffffffffffffffffffffffffffffffffff82169050919050565b6000819050919050565b600067ffffffffffffffff82169050919050565b600060ff82169050919050565b82818337600083830152505050565b60005b8381101561362e578082015181840152602081019050613613565b8381111561363d576000848401525b50505050565b6000600282049050600182168061365b57607f821691505b6020821081141561366f5761366e613788565b5b50919050565b61367e82613829565b810181811067ffffffffffffffff8211171561369d5761369c6137e6565b5b80604052505050565b60006136b1826135d6565b91507fffffffffffffffffffffffffffffffffffffffffffffffffffffffffffffffff8214156136e4576136e361372a565b5b600182019050919050565b6000819050919050565b6000613704826135d6565b915061370f836135d6565b92508261371f5761371e613759565b5b828206905092915050565b7f4e487b7100000000000000000000000000000000000000000000000000000000600052601160045260246000fd5b7f4e487b7100000000000000000000000000000000000000000000000000000000600052601260045260246000fd5b7f4e487b7100000000000000000000000000000000000000000000000000000000600052602260045260246000fd5b7f4e487b7100000000000000000000000000000000000000000000000000000000600052603260045260246000fd5b7f4e487b7100000000000000000000000000000000000000000000000000000000600052604160045260246000fd5b600080fd5b600080fd5b600080fd5b600080fd5b6000601f19601f8301169050919050565b7f45524332303a207472616e7366657220746f20746865207a65726f206164647260008201527f6573730000000000000000000000000000000000000000000000000000000000602082015250565b7f45524332303a20617070726f766520746f20746865207a65726f20616464726560008201527f7373000000000000000000000000000000000000000000000000000000000000602082015250565b7f45524332303a207472616e7366657220616d6f756e742065786365656473206260008201527f616c616e63650000000000000000000000000000000000000000000000000000602082015250565b7f466163746f727920646f65736e27742062656c6f6e6720746f20796f75202100600082015250565b7f45524332303a207472616e7366657220616d6f756e742065786365656473206160008201527f6c6c6f77616e6365000000000000000000000000000000000000000000000000602082015250565b7f43616e27742062757920737061776e2021000000000000000000000000000000600082015250565b7f4c616e6420646f65736e27742062656c6f6e6720746f20796f75202100000000600082015250565b7f4e6f7420656e6f756768204d4c4f20696e20796f75722077616c6c657420746f60008201527f20627579206c616e642021000000000000000000000000000000000000000000602082015250565b7f4c616e6420616c72656164792065786973747320210000000000000000000000600082015250565b7f45524332303a207472616e736665722066726f6d20746865207a65726f20616460008201527f6472657373000000000000000000000000000000000000000000000000000000602082015250565b7f45524332303a20617070726f76652066726f6d20746865207a65726f2061646460008201527f7265737300000000000000000000000000000000000000000000000000000000602082015250565b7f45524332303a2064656372656173656420616c6c6f77616e63652062656c6f7760008201527f207a65726f000000000000000000000000000000000000000000000000000000602082015250565b613b5f81613580565b8114613b6a57600080fd5b50565b613b768161359e565b8114613b8157600080fd5b50565b613b8d816135d6565b8114613b9857600080fd5b50565b613ba4816135f4565b8114613baf57600080fd5b5056fea2646970667358221220824bf8eec2c4c12991d54aa28395f0392f62845ceea337fc54def2db20a875f164736f6c63430008060033",
  "immutableReferences": {},
  "source": "// SPDX-License-Identifier: MIT\r\npragma solidity ^0.8.2;\r\n\r\nimport \"@openzeppelin/contracts/token/ERC20/ERC20.sol\";\r\n\r\n// import \"@openzeppelin/contracts/access/Ownable.sol\";\r\n\r\ncontract Marsmello is ERC20 {\r\n    constructor() ERC20(m_name, m_symbol) {\r\n        _mint(msg.sender, m_supply * 10**decimals());\r\n        deploy_time = block.timestamp;\r\n    }\r\n\r\n    string m_name = \"MarsMellow\";\r\n    string m_symbol = \"MLO\";\r\n    uint256 m_supply = 1000000000;\r\n    uint256 deploy_time;\r\n    uint256 randomness = 12345678901234567890;\r\n    uint256 land_price = 1000 * 10**decimals();\r\n\r\n    uint256 factory_count = 0;\r\n    struct Land {\r\n        address owner;\r\n        uint256 seed;\r\n        uint16[5] ores;\r\n        uint256 ontop;\r\n    }\r\n    struct Factory {\r\n        string name;\r\n        address owner;\r\n        uint64 ftype;\r\n        uint64 efficiency;\r\n        uint256 lastclaimed;\r\n        CoOrdinates placedon;\r\n    }\r\n    struct User {\r\n        uint256[] factories;\r\n        CoOrdinates[] lands;\r\n    }\r\n    struct CoOrdinates {\r\n        int256 x;\r\n        int256 y;\r\n    }\r\n    struct Relay {\r\n        address owner;\r\n        uint256 seed;\r\n        uint16[5] ores;\r\n        Factory ontop;\r\n    }\r\n    address[5] private resources = [\r\n        0x110472D9B5661DC1d8BA8C637Dbde1f5a813cD8A,\r\n        0x7155651d11C869f76BE988cf30BE3B856f29E905,\r\n        0xe8D98e3331C0434D38FfB8041eF2EF233C41Cf70,\r\n        0x38a3FD50BF7240988639D7DA8A0EcD91052AF1d1,\r\n        0x8042A576cB35d83cbECE64e211BF0570F72e4Cfd\r\n    ];\r\n\r\n    mapping(int256 => mapping(int256 => Land)) private lands;\r\n    Factory[] private factories;\r\n    mapping(address => User) private users;\r\n\r\n    modifier landOwner(int256 x, int256 y) {\r\n        require(\r\n            lands[x][y].owner == msg.sender,\r\n            \"Land doesn't belong to you !\"\r\n        );\r\n        _;\r\n    }\r\n    modifier factoryOwner(uint256 id) {\r\n        require(\r\n            factories[id].owner == msg.sender,\r\n            \"Factory doesn't belong to you !\"\r\n        );\r\n        _;\r\n    }\r\n\r\n    function getUserData(address user)\r\n        public\r\n        view\r\n        returns (uint256[] memory, CoOrdinates[] memory)\r\n    {\r\n        return (users[user].factories, users[user].lands);\r\n    }\r\n\r\n    function getLandPrice() public view returns (uint256) {\r\n        return (land_price);\r\n    }\r\n\r\n    function mintFactory(\r\n        string memory name,\r\n        uint8 ftype,\r\n        uint8 efficiency\r\n    ) public returns (bool) {\r\n        require(\r\n            balanceOf(msg.sender) >= 1000,\r\n            \"Not enough MLO in your wallet to buy land !\"\r\n        );\r\n        factories.push(\r\n            Factory(name, msg.sender, ftype, efficiency, 0, CoOrdinates(0, 0))\r\n        );\r\n        users[msg.sender].factories.push(factories.length - 1);\r\n        return true;\r\n    }\r\n\r\n    function calcOreDist(uint256 seed) public pure returns (uint16[5] memory) {\r\n        return [\r\n            uint16(23),\r\n            uint16(17),\r\n            uint16(13),\r\n            uint16(10),\r\n            uint16(seed % 5)\r\n        ];\r\n    }\r\n\r\n    function mintLand(int256 x, int256 y) public returns (bool) {\r\n        require(x != 0 && y != 0, \"Can't buy spawn !\");\r\n        require(lands[x][y].owner == address(0x0), \"Land already exists !\");\r\n        require(\r\n            balanceOf(msg.sender) >= land_price,\r\n            \"Not enough MLO in your wallet to buy land !\"\r\n        );\r\n        _transfer(msg.sender, address(this), land_price);\r\n        land_price += land_price / 100;\r\n        uint256 seed = uint256(\r\n            keccak256(abi.encodePacked(randomness, block.timestamp, land_price))\r\n        );\r\n        lands[x][y] = Land(msg.sender, seed, calcOreDist(seed), 0);\r\n        users[msg.sender].lands.push(CoOrdinates(x, y));\r\n        return true;\r\n    }\r\n\r\n    function _clearLand(CoOrdinates memory c) private {\r\n        if (c.x != 0 || c.y != 0) lands[c.x][c.y].ontop = 0;\r\n    }\r\n\r\n    function _clearFactory(uint256 id) private {\r\n        if (id != 0) {\r\n            factories[id].placedon = CoOrdinates(0, 0);\r\n            factories[id].lastclaimed = 0;\r\n        }\r\n    }\r\n\r\n    function placeFactory(\r\n        uint256 factory_id,\r\n        int256 x,\r\n        int256 y\r\n    ) public landOwner(x, y) factoryOwner(factory_id) returns (bool) {\r\n        _clearFactory(lands[x][y].ontop);\r\n        _clearLand(factories[factory_id].placedon);\r\n\r\n        lands[x][y].ontop = factory_id;\r\n        factories[factory_id].placedon = CoOrdinates(x, y);\r\n        factories[factory_id].lastclaimed = block.timestamp;\r\n        return true;\r\n    }\r\n\r\n    function transferLand(\r\n        address to,\r\n        int256 x,\r\n        int256 y\r\n    ) public landOwner(x, y) returns (bool) {\r\n        _clearFactory(lands[x][y].ontop);\r\n        _clearLand(CoOrdinates(x, y));\r\n        lands[x][y].owner = to;\r\n        for (uint256 i = 0; i < users[msg.sender].lands.length; i++) {\r\n            if (\r\n                users[msg.sender].lands[i].x == x &&\r\n                users[msg.sender].lands[i].y == y\r\n            ) {\r\n                users[msg.sender].lands[i] = CoOrdinates(0, 0);\r\n                break;\r\n            }\r\n        }\r\n        users[to].lands.push(CoOrdinates(x, y));\r\n        return true;\r\n    }\r\n\r\n    function transferFactory(address to, uint256 factory_id)\r\n        public\r\n        factoryOwner(factory_id)\r\n    {\r\n        Factory storage f = factories[factory_id];\r\n        _clearLand(f.placedon);\r\n        _clearFactory(factory_id);\r\n        f.owner = to;\r\n        for (uint256 i = 0; i < users[msg.sender].factories.length; i++) {\r\n            if (users[msg.sender].factories[i] == factory_id) {\r\n                users[msg.sender].factories[i] == 0;\r\n                break;\r\n            }\r\n        }\r\n        users[to].factories.push(factory_id);\r\n    }\r\n\r\n    // function claimAll() public {\r\n    //     uint256[5] memory amounts;\r\n    //     uint64 t;\r\n    //     for (uint256 i = 0; i < users[msg.sender].factories.length; i++) {\r\n    //         Factory storage f = factories[users[msg.sender].factories[i]];\r\n    //         if (f.placedon.x != 0 || f.placedon.y != 0) {\r\n    //             t = f.ftype % 10;\r\n    //             if (t > 0) {\r\n    //                 t--;\r\n    //                 amounts[t] +=\r\n    //                     (lands[f.placedon.x][f.placedon.y].ores[t] *\r\n    //                         f.efficiency *\r\n    //                         10**18) /\r\n    //                     36;\r\n    //             }\r\n    //         }\r\n    //     }\r\n    //     for (uint256 i = 0; i < 5; i++) {}\r\n    // }\r\n\r\n    function getArea(int256 x, int256 y)\r\n        public\r\n        view\r\n        returns (Relay[41][41] memory)\r\n    {\r\n        Relay[41][41] memory r;\r\n        for (uint256 i = 0; i < 41; i++) {\r\n            for (uint256 j = 0; j < 41; j++) {\r\n                Land memory l = lands[x - 20 + int256(i)][y - 20 + int256(j)];\r\n                r[i][j] = Relay(l.owner, l.seed, l.ores, factories[l.ontop]);\r\n            }\r\n        }\r\n        return r;\r\n    }\r\n}\r\n",
  "sourcePath": "C:\\workshop\\web3\\truffle\\marsmello\\contracts\\Marsmello.sol",
  "compiler": {
    "name": "solc",
    "version": "0.8.6+commit.11564f7e.Emscripten.clang"
  },
  "schemaVersion": "3.4.2",
  "updatedAt": "2021-07-30T16:00:19.323Z",
  "networkType": "ethereum",
  "devdoc": {
    "kind": "dev",
    "methods": {
      "allowance(address,address)": {
        "details": "See {IERC20-allowance}."
      },
      "approve(address,uint256)": {
        "details": "See {IERC20-approve}. Requirements: - `spender` cannot be the zero address."
      },
      "balanceOf(address)": {
        "details": "See {IERC20-balanceOf}."
      },
      "decimals()": {
        "details": "Returns the number of decimals used to get its user representation. For example, if `decimals` equals `2`, a balance of `505` tokens should be displayed to a user as `5,05` (`505 / 10 ** 2`). Tokens usually opt for a value of 18, imitating the relationship between Ether and Wei. This is the value {ERC20} uses, unless this function is overridden; NOTE: This information is only used for _display_ purposes: it in no way affects any of the arithmetic of the contract, including {IERC20-balanceOf} and {IERC20-transfer}."
      },
      "decreaseAllowance(address,uint256)": {
        "details": "Atomically decreases the allowance granted to `spender` by the caller. This is an alternative to {approve} that can be used as a mitigation for problems described in {IERC20-approve}. Emits an {Approval} event indicating the updated allowance. Requirements: - `spender` cannot be the zero address. - `spender` must have allowance for the caller of at least `subtractedValue`."
      },
      "increaseAllowance(address,uint256)": {
        "details": "Atomically increases the allowance granted to `spender` by the caller. This is an alternative to {approve} that can be used as a mitigation for problems described in {IERC20-approve}. Emits an {Approval} event indicating the updated allowance. Requirements: - `spender` cannot be the zero address."
      },
      "name()": {
        "details": "Returns the name of the token."
      },
      "symbol()": {
        "details": "Returns the symbol of the token, usually a shorter version of the name."
      },
      "totalSupply()": {
        "details": "See {IERC20-totalSupply}."
      },
      "transfer(address,uint256)": {
        "details": "See {IERC20-transfer}. Requirements: - `recipient` cannot be the zero address. - the caller must have a balance of at least `amount`."
      },
      "transferFrom(address,address,uint256)": {
        "details": "See {IERC20-transferFrom}. Emits an {Approval} event indicating the updated allowance. This is not required by the EIP. See the note at the beginning of {ERC20}. Requirements: - `sender` and `recipient` cannot be the zero address. - `sender` must have a balance of at least `amount`. - the caller must have allowance for ``sender``'s tokens of at least `amount`."
      }
    },
    "version": 1
  },
  "userdoc": {
    "kind": "user",
    "methods": {},
    "version": 1
  }
}